:100000007AC0000094C0000092C0000090C00000C0
:10001000DBC200008CC000008AC0000088C0000065
:1000200086C0000084C0000082C00000DEC2000064
:10003000E7C200007CC000007AC0000078C0000069
:1000400076C0000074C0000072C0000070C00000E4
:100050006EC000006CC000006AC0000068C00000F4
:1000600066C0000064C0000062C0000060C0000004
:100070005EC000005CC000005AC0000058C0000014
:1000800056C00000C8C20000D1C2000050C000002D
:100090004EC000004CC000004AC0000048C0000034
:1000A00046C0000044C0000042C0000040C0000044
:1000B0003EC000000664EC1B3C04BC163E3BE5B9A8
:1000C0003CC93C37C29E5A3D660498083EEA69AA7C
:1000D000AA3E000000803F05A84CCDB2D44EB938EE
:1000E00036A9020C50B9918688083CA6AAAA2ABE55
:1000F000000000803F0011241FBECFEFD8E0DEBF1C
:10010000CDBF12E0A0E0B1E0E0E0F2E602C0059071
:100110000D92A832B107D9F723E0A8E2B2E001C0FE
:100120001D92A234B207E1F704D00C94FE3089C2CC
:100130000BC5FEDF429A3898409878948091680009
:1001400081608093680080916B00806480936B0075
:100150006091060170E042E050E08DE193E02BD524
:1001600026E04EE162E08CE392E076D23B98439841
:10017000389A8091680082608093680080916C005A
:10018000886080936C008AE792E09093720280937B
:100190007102E0912B0270912C0290912D0230910E
:1001A0002E0250912F026091300280903102909087
:1001B0003202A0903302B0903402C0903502E09039
:1001C0003602F09037020091380210913902809186
:1001D0000F01883631F08C3631F0833731F023E06F
:1001E00005C020E003C021E001C022E080911001A1
:1001F00041E0833609F040E0EF937F936F935F9384
:100200003F939F936BE273E08AE792E00E94992B01
:100210000F900F900F900F900F900F90811147C08B
:10022000739A8FEC97E00197F1F700C000008FEC14
:1002300097E00197F1F700C000008FEC97E001977D
:10024000F1F700C000008FEC97E00197F1F700C0D4
:1002500000008FEC97E00197F1F700C000000E94CA
:100260003909C0E08C2F0E9452098FEC97E001976A
:10027000F1F700C000008FEC97E00197F1F700C0A4
:1002800000008FEC97E00197F1F700C000008FECC1
:1002900097E00197F1F700C000008FEC97E001971D
:1002A000F1F700C00000CF5FC336E1F6DACF10925D
:1002B0002A026BE273E080917102909172020E94B7
:1002C000552B80911101803709F4B1D7809112012B
:1002D000803709F4CED780EE0CD680EE93E9A4E007
:1002E000B0E0CEE1D0E020912A02222309F45AC1E5
:1002F00010922A02809112018D3609F47398809130
:1003000011018D3609F4409A4EE552E06BE273E03C
:1003100080917102909172020E94632C8091700210
:10032000809379028430A9F080915E0290915F02FF
:1003300090933B0280933A0280916A0290916B0203
:10034000A0916C02B0916D02B0937402A0937302FD
:1003500008C010923B0210923A021092740210925E
:10036000730280913A0290913B02803A9F4020F0C4
:1003700010923B0210923A0280913A0290913B0215
:1003800001974E9720F4D0933B02C0933A0280919C
:100390003A0290913B02909376028093750290937B
:1003A000780280937702009761F120911401222353
:1003B00039F06CE372E0E2D2909378028093770296
:1003C000809113018823E9F067E772E08DE193E003
:1003D00020D460910601E0911D03F0911E0320E0FE
:1003E00080E090E0621731F041915191840F951FA8
:1003F0002F5FF8CF70E00E94412F709378026093D6
:100400007702809112018437C9F48091770290912C
:10041000780240910B0150910C0160910D01709197
:100420000E016C01E12CF12C4C155D056E057F056C
:1004300020F0892B11F0739801C0739A80911101FB
:100440008437C9F480917702909178024091070136
:10045000509108016091090170910A016C01E12C31
:10046000F12C4C155D056E057F0520F0892B11F0F0
:10047000409A01C04098809112018D3609F4739A18
:10048000809111018D3609F440988091700283505B
:10049000823008F47CC0609177027091780280E02D
:1004A00090E04AE050E0BBD633D5A0907702B09000
:1004B00078026501E12CF12C80910B0190910C01E7
:1004C000A0910D01B0910E018C159D05AE05BF05E3
:1004D00018F41092290227C0A114B104D1F380911D
:1004E0000B0190910C01A0910D01B0910E01409073
:1004F0000B0150900C0160900D0170900E019C0159
:10050000AD012C193D094E095F09A4E6B0E00E9437
:10051000A92FA30192012E513109410951090E94CD
:10052000552F209329028091070190910801A091F5
:100530000901B0910A018C159D05AE05BF0548F172
:10054000AB2839F18091070190910801A091090130
:10055000B0910A018090070190900801A0900901D4
:10056000B0900A019C01AD012C193D094E095F09AB
:10057000A4E6B0E00E94A92FA50194012E513109F3
:10058000410951090E94552F2093280204C010925E
:100590002902109228028091290284D68091280293
:1005A0005FD60DC00197A109B10909F09CCE6BE29D
:1005B00073E080917102909172020E94552B80EE3F
:1005C00093E9A4E0B0E08FCE1F920F920FB60F9286
:1005D00011248F93339903C081E080932A028F9175
:1005E0000F900FBE0F901F9018951F920F920FB68D
:1005F0000F921124409A0F900FBE0F901F901895E4
:100600001F920F920FB60F92112440980F900FBEB9
:100610000F901F9018951F920F920FB60F921124F2
:1006200073980F900FBE0F901F9018951F920F9206
:100630000FB60F921124739A0F900FBE0F901F9058
:1006400018951F920F920FB60F92112400000F9071
:100650000FBE0F901F9018952F923F924F925F926E
:100660006F927F928F929F92AF92BF92CF92DF92C2
:10067000EF92FF920F931F93CF93DF93CDB7DEB727
:1006800066970FB6F894DEBF0FBECDBF9E8B8D8BE5
:10069000122F6695262E312CDC012D923C92642F70
:1006A00070E080E090E00E94732D6B017C01ED8989
:1006B000FE896283738384839583612F70E080E079
:1006C00090E00E94732DAD89BE8916966D937D933F
:1006D0008D939C9319972BED3FE049E450E40E94E1
:1006E000252EA70196010E94DF2C0E948E2E698381
:1006F0007A838B839C83ED89FE89628773878487E5
:1007000095879B01AC010E94252E6B017C01AD8970
:10071000BE891E966D937D938D939C935197FD0199
:10072000128A138A148A158A5101AA0CBB1CAA0CBE
:10073000BB1CC5010E94CD2F2C01AD89BE895696E8
:100740008C93569757965C92C5010E94CD2F3C0121
:10075000ED89FE89808F718EC5010E94CD2F8C019D
:10076000AD89BE895A968C935A975B961C9364E028
:1007700070E0C1010E94B32F4C01ED89FE89848F86
:10078000958E64E070E0C1010E94B32F5C01AD89D9
:10079000BE895E968C935E975F96BC9264E070E033
:1007A000C1010E94B32FED89FE8980A391A34D82E0
:1007B0005E826F82788609871A878B869C86AD86D3
:1007C000BE868F87988B00E010E0C101032C000CDF
:1007D000AA0BBB0B898B9A8BAB8BBC8B02151305B9
:1007E0000CF0B3C0B801012E000C880B990B0E94CD
:1007F000752D9B01AC010E94772C20E030E040E891
:100800005FE30E94772C2BED3FE049E450E40E9427
:10081000252E4B015C0169897A898B899C890E940C
:10082000752D20E030E040E850E40E94252E9B0129
:10083000AC01C501B4010E94DF2C0E94882E4B013F
:100840005C01AD89BE8952966D937D938D939C9387
:10085000559729813A814B815C81CA01B9010E9477
:10086000772CA50194010E94252E2B013C019B01B0
:10087000AC01C701B6010E94772C20E030E040E8CF
:100880005FE30E94772C4B015C01ED89FE89628356
:100890007383848395839B01AC01C701B6010E94D9
:1008A000DF2CAD81BE816D937D938D939D93BE832F
:1008B000AD83A701960160E070E080E89FE30E94AD
:1008C000762C9B01AC010E94772CA50194010E941B
:1008D000DF2CEF81F8856193719381939193F88771
:1008E000EF83A3019201C701B6010E94762C20E09C
:1008F00030E040E85FE30E94772C9058A501940116
:100900000E94DF2CA985BA856D937D938D939D936D
:10091000BA87A987EB85FC851192119211921192E9
:10092000FC87EB87AD85BE851D921D921D921D92A1
:10093000BE87AD87EF85F8891192119211921192BD
:10094000F88BEF870F5F1F4F49CF66960FB6F8946D
:10095000DEBF0FBECDBFDF91CF911F910F91FF90F2
:10096000EF90DF90CF90BF90AF909F908F907F904F
:100970006F905F904F903F902F9008952F923F92ED
:100980004F925F926F927F928F929F92AF92BF929F
:10099000CF92DF92EF92FF920F931F93CF93DF934B
:1009A00000D000D000D0CDB7DEB78B01BC0180E015
:1009B00090E00E94732D4B015C01D8010D90BC9119
:1009C000A02DBC83AB831E821D82212C312C8B81F8
:1009D0009C81281639060CF08DC0F801848D958D08
:1009E0002D813E81280F391F3A832983C68CD78CED
:1009F0008D819E81C80ED91EE0A0F1A0E80EF91EDF
:100A0000008CF18DE02DE80FF91FD6012D913D915D
:100A10004D915C9160817181828193810E94252E2C
:100A20002B013C01D8015A96ED91FC915B972D81E9
:100A30003E81E20FF31FD7012D913D914D915C91C5
:100A400060817181828193810E94252E9B01AC017E
:100A5000C301B2010E94772CA50194010E94772C5A
:100A60004B015C01E981FA81608371838283938306
:100A7000D6014D905D906D907C90A3019201C301D1
:100A8000B2010E94772CA50194010E94772CF701F6
:100A900020813181428153810E94772CD801569662
:100AA000ED91FC9157972D813E81E20FF31F20813C
:100AB0003181428153810E94252E4B015C01D70177
:100AC0004D925D926D927C921397E981FA818081BB
:100AD0009181A281B381F60180839183A283B38344
:100AE000FFEF2F1A3F0A2D813E812C5F3F4F3E833F
:100AF0002D836DCFC501B4010E94472DCB012696F1
:100B00000FB6F894DEBF0FBECDBFDF91CF911F911E
:100B10000F91FF90EF90DF90CF90BF90AF909F909C
:100B20008F907F906F905F904F903F902F9008959F
:100B30003D9A459845983C9A44984498BCC3699816
:100B4000719868987098C5C38DE3809365008FEFA6
:100B50008093640094B114B895B185B997B1907839
:100B600097B998B19F6798B99AB11AB89BB18BB9E8
:100B70008DB1807F8DB98EB18F608EB926982E98F9
:100B8000279827982F9A38984098399841983A9AF8
:100B900042983B98439853985B9855985D986B9A08
:100BA000739A40E060E881E690E03AD313BE15BE48
:100BB0009FD3BEDFC4CFCF92DF92EF92FF920F930D
:100BC0001F93CF93DF93EC016B017A01649F800147
:100BD000659F100D749F100D1124C8010E94CD2F28
:100BE00099838883080F191F1B830A83DD82CC82B7
:100BF0001F821E82F986E8869B878A879D878C875D
:100C0000DF91CF911F910F91FF90EF90DF90CF90E8
:100C10000895CF93DF93EC018E819F812C813D81DC
:100C2000488559858217930791F42C853D85240FBB
:100C3000351F3D872C87EA81FB812E173F0721F462
:100C4000288139813D872C8701979F838E838A85F0
:100C50009B850E94EE302A853B8588859985820F89
:100C6000931F9B878A872A813B818217930721F4F0
:100C7000888199819B878A878E819F8101969F8336
:100C80008E83DF91CF91089516C31092BC0094EA31
:100C90009093BC009091BC0097FFFCCF9091B9005D
:100CA000987F983011F081E008958093BB0084E82C
:100CB0008093BC0081EA96E8A1E0B0E02091BC00FE
:100CC00027FD04C00197A109B109C1F78091B900BE
:100CD000887F883111F0803431F780E00895809367
:100CE000BB0084E88093BC0081EA96E8A1E0B0E014
:100CF0002091BC0027FD04C00197A109B109C1F7EB
:100D00009091B900987F81E0983209F480E00895CD
:100D100084EC8093BC0081EA96E8A1E0B0E02091E9
:100D2000BC0027FD04C00197A109B109C1F780915A
:100D3000BB00089584E88093BC0081EA96E8A1E0B6
:100D4000B0E02091BC0027FD04C00197A109B109C2
:100D5000C1F78091BB000895DF92EF92FF920F934D
:100D60001F93CF93DF93C62FD42E052F79018DDFEC
:100D7000182F882311F011E011C08C2FB0DFCD2D7A
:100D8000D02FEC0EFD1ECE15DF0529F08991A7DFCF
:100D90008823C9F3F0CF84E98093BC00812FDF91D1
:100DA000CF911F910F91FF90EF90DF900895AF9238
:100DB000BF92CF92DF92FF920F931F93CF93DF9357
:100DC000C82FD62F6A01890160DF882319F0FF241C
:100DD000F3941DC08D2F83DF8C2F816056DFF82E9A
:100DE0008111F5CF5601E8012197C5018C199D09A4
:100DF0008C179D0728F48CDFF50181935F01F5CFF7
:100E0000CC0DDD1D97DF888384E98093BC008F2D96
:100E1000DF91CF911F910F91FF90DF90CF90BF9006
:100E2000AF90089584E98093BC00089552C2109257
:100E3000DC0094EA9093DC009091DC0097FFFCCFFB
:100E40009091D900987F983011F081E008958093B7
:100E5000DB0084E88093DC0081EA96E8A1E0B0E062
:100E60002091DC0027FD04C00197A109B109C1F759
:100E70008091D900887F883111F0803431F780E08B
:100E800008958093DB0084E88093DC0081EA96E893
:100E9000A1E0B0E02091DC0027FD04C00197A1098A
:100EA000B109C1F79091D900987F81E0983209F497
:100EB00080E0089584E98093DC000895CF93C82FE3
:100EC00080913D03B4DF8C2FC03108F08FE0806E3D
:100ED000D8DFCF91EFCFCF93C82F843008F0C0E098
:100EE00080913D03A4DF8C2F880F8168CADFCF91EA
:100EF000E1CF80933D0310922C0398DF80913D0356
:100F000096DF81E2BEDFD6DF80E0E5DF88E0D6CF86
:100F10000F931F93CF93DF9380913D0388DF80E091
:100F2000B0DFCDE2D3E08E018881ABDF2296F801FD
:100F30008181A7DFF3E0CD33DF07A9F7DF91CF9100
:100F40001F910F91B7CF853098F4E82FF0E0EE0FA6
:100F5000FF1FE35DFC4FA62FB0E0A85EBD4F80E809
:100F6000489FA00111248C91482B50E0518340836D
:100F700008952F923F924F925F926F927F928F923D
:100F80009F92AF92BF92CF92DF92EF92FF920F9318
:100F90001F93CF93DF93CDB7DEB729970FB6F894A1
:100FA000DEBF0FBECDBF69837A838B839C83498765
:100FB000122F20E030E0A9010E94DB2C87FF0DC03A
:100FC00089819A81AB81BC81B05889839A83AB8334
:100FD000BC8301E093E09D8303C000E0A4E0AD8307
:100FE000E12CF12C812C912C30E8A32E3FE3B32E81
:100FF000B985CB2ED12C412E512C612C712CEC14A7
:10100000FD0484F4C301B2010E94752D9B01AC0163
:10101000C501B4010E94252E4B015C018FEFE81A37
:10102000F80AEDCFA501940169817A818B819C81B9
:101030000E94252E20E030E040E05FE30E94772C04
:101040000E94472D6B017C01212C312C412C512C0D
:10105000320143949D81E92FF0E0812F90E0A0E0E0
:10106000B0E08D839E83AF83B8872E163F0674F45D
:10107000A30192016D817E818F8198850E94322F1C
:101080002B013C019FEF291A390AEFCF812F90E005
:10109000A0E0B0E08D839E83AF83B887C414D504ED
:1010A000E604F70420F19985915099876D817E813E
:1010B0008F8198850E94752D9B01AC01C501B401FB
:1010C0000E94DF2C4B015C019B01AC0169817A819C
:1010D0008B819C810E94252E20E030E040E05FE380
:1010E0000E94772C0E94472D6B017C01D7CF20E016
:1010F00030E040E85FE3C501B4010E94DB2C87FDCE
:101100006DC0C114D104E104F104B9F1B12CA4E023
:10111000A983412E512C612C712CB985BB2311F070
:1011200041E0BB1140E0A9808A2D81508983142FB2
:101130001170C701B601A30192010E94552F412FE2
:101140008A2D01DF9981923039F4AA94AA94A98258
:101150001092320310923103C701B601A30192012C
:101160000E94552F69017A01B394232B242B252B40
:10117000A1F6A985AB1588F60AC08FE390E090939D
:1011800036038093350301110BC0B3E025C0002363
:1011900099F0E9818E2F81508983E53068F403C08E
:1011A00092E09983E3E0F0E0EE0FFF1FE35DFC4F78
:1011B00080E490E091838083898187FD0FC0A981BD
:1011C000A53044F4EA2FF0E0EE0FFF1FE35DFC4F83
:1011D00011821082B981B150B983EECF29960FB632
:1011E000F894DEBF0FBECDBFDF91CF911F910F915D
:1011F000FF90EF90DF90CF90BF90AF909F908F9037
:101200007F906F905F904F903F902F900895CF9375
:10121000C42F0E94752D2C2F40E0CF91AACEF7CF7E
:101220002FB7F894FC01608340832FBF0895E4E654
:10123000F0E08081877F80838BE08093810083E66C
:1012400090E0909389008093880080E490E09093F0
:101250008B0080938A0086E080936F0080E0089581
:10126000833608F082E690E090938B0080938A00AA
:101270000895E5E6F0E080818E7F80838BE08093A7
:10128000910083E690E0909399008093980080E429
:1012900090E090939B0080939A0086E08093710089
:1012A00080E00895833608F082E690E090939B00FA
:1012B00080939A000895E4E6F0E080818F77808340
:1012C00084E08093BC0082E08093B8001092B90063
:1012D0000895E5E6F0E080818F7D808384E080934F
:1012E000DC0080E28093D8001092D90080E008955D
:1012F00084B7877F84BF41E268E180E690E090DFB9
:1013000080E008950C94B212633041F018F462301A
:1013100028F008C02CEE260F223020F4FC01608754
:1013200080E0089588EF08950C949D1F0C94481E4A
:101330000C94771FDF92EF92FF920F931F93CF933E
:10134000DF931F92CDB7DEB77C01162FD42E198202
:10135000AE014F5F5F4F61E00E94852A082F811127
:101360004FC0898191E0D9121AC0123091F038F43F
:10137000112361F0113069F5182F18622CC0133059
:1013800059F0143031F5182F106825C0182F10614E
:1013900022C0182F14601FC0182F10641CC01230F8
:1013A00091F038F4112361F0113099F4182F177D62
:1013B00012C0133059F0143061F4182F1F770BC08E
:1013C000182F1F7E08C0182F1B7F05C0182F1F7BEA
:1013D00002C00CEF15C0811799F0412F61E0C701E1
:1013E0000E94392A082F81110BC0F701E158FF4FE5
:1013F0001083F7014185528563857485C70194DFA9
:10140000802F0F90DF91CF911F910F91FF90EF9060
:10141000DF9008950F931F93CF93DF931F92CDB763
:10142000DEB78B011982AE014F5F5F4F61E00E9412
:10143000852A811116C0998194FB222720F9F80191
:10144000208393FB222720F9228392FB222720F975
:10145000218396FB222720F92383991F9927991F1F
:1014600094830F90DF91CF911F910F910895CF92A8
:10147000DF92EF92FF920F931F93CF93DF9300D0F1
:10148000CDB7DEB78C016A017B01AE014F5F5F4FC4
:1014900068EF0E94902A811117C0A981BA81960134
:1014A000109729F0A7010E94A92F9B0101C0C70135
:1014B000AC0164E0C8010E944F2A811105C0F80107
:1014C000C586D686E786F08A0F900F90DF91CF9180
:1014D0001F910F91FF90EF90DF90CF900895CF92E2
:1014E000DF92EF92FF921F93CF93DF9300D000D053
:1014F00000D0CDB7DEB77C016B01AE014B5F5F4F13
:1015000068EF0E94902A182F811126C0AE014F5F0C
:101510005F4F64E0C7010E949B2A182F81111CC0F5
:101520002D813E812115310569F040E050E069814F
:101530007A818B819C810E94552FF6012083318313
:1015400042835383F60180819181A281B381F701A7
:1015500085879687A787B08B812F26960FB6F8943C
:10156000DEBF0FBECDBFDF91CF911F91FF90EF90F7
:10157000DF90CF9008951F93CF93DF93EC01162F48
:10158000662369F0FC01E656FF4F80819181883E19
:10159000934029F44C895D896E897F8903C040E0BE
:1015A00050E0BA0183E076956795579547958A95FF
:1015B000D1F760E2CE010E94442A811106C01111C8
:1015C00002C0198A02C091E0998BDF91CF911F91DF
:1015D0000895FC018189FB01808380E00895CF920A
:1015E000DF92EF92FF92CF93DF93FC0121892111CB
:1015F00006C0448B558B668B778B80E022C0FC0144
:10160000E656FF4F20813181283E334059F46A016C
:101610007B0123E0F694E794D794C7942A95D1F7F9
:10162000960102C020E030E06A017B01EC01A901D3
:1016300060E20E94442A811104C0CC8ADD8AEE8ACD
:10164000FF8ADF91CF91FF90EF90DF90CF900895C8
:10165000EF92FF920F931F93CF93DF9300D0CDB7FC
:10166000DEB77C018B01AE014F5F5F4F60E20E94ED
:10167000902A811125C049815A814115510569F48B
:10168000F7014489558966897789F8014083518338
:1016900062837383F701118A13C093E0440F551FCF
:1016A0009A95E1F760E070E0F8014083518362832E
:1016B0007383F701448B558B668B778B91E0918B0D
:1016C0000F900F90DF91CF911F910F91FF90EF90AE
:1016D0000895FF920F931F93CF93DF93EB01F42EA6
:1016E0006630710588F4442389F0FB013A96EE0FC9
:1016F000FF1FEE0FFF1FE80FF91F4081518162812C
:10170000738120E031E007C08CEF43C021E030E07E
:1017100040E050E0BA018C01C330D10519F4F80162
:10172000378F2EC0C430D10578F4C130D105C1F453
:1017300089E076956795579547958A95D1F764E442
:10174000C8010E94442A09C0C430D10591F4220F77
:101750004EEF60E6C8010E945A2A81111AC010C0DB
:10176000C230D10519F0F801348F0AC0F801368F64
:1017700007C0C530D105B9F72295207F4FEEE9CFDC
:10178000C00FD11FF11002C01C8E02C081E08C8FEF
:1017900080E0DF91CF911F910F91FF900895663007
:1017A000710520F0FA0110828CEF0895FC01E60F1C
:1017B000F71F848DFA01808380E00895CF92DF9235
:1017C000EF92FF920F931F93CF93DF938C01EB0166
:1017D00069017A01FC01E60FF71F848D81110DC0AC
:1017E0002A96CC0FDD1FCC0FDD1FC00FD11FC88282
:1017F000D982EA82FB8280E03EC06230710541F10D
:1018000080F42097F9F061307105A1F5BA01A901C2
:1018100099E076956795579547959A95D1F764E441
:1018200023C063307105D1F06630710518F5BA0137
:10183000A90189E076956795579547958A95D1F7DF
:1018400064E612C0F80120A731A742A753A7C8CF6A
:10185000F80120AB31AB42AB53ABC2CFF80124ABA4
:1018600035AB46AB57ABBCCFC8010E94442A8111AF
:1018700002C0B6CF8CEFDF91CF911F910F91FF90F7
:10188000EF90DF90CF900895EF92FF920F931F9308
:10189000CF93DF9300D0CDB7DEB78C017A016230F1
:1018A0007105A1F138F46115710559F061307105C8
:1018B00071F055C06330710579F16630710590F1B2
:1018C0004EC0FC0180A591A5A2A5B3A54AC0AE015A
:1018D0004F5F5F4F64E40E94902A811148C0998154
:1018E00020E030E0392F330FA90160E070E0232BB6
:1018F00049F5F80144A555A566A577A5F7014083EC
:10190000518362837383F801158E31C0FC0180A975
:1019100091A9A2A9B3A925C0FC0184A995A9A6A94A
:10192000B7A91FC0AE014F5F5F4F64E60E94902AC7
:1019300081111DC0298180E090E0922F990FA0E0D5
:10194000B0E00FC0F7014083518362837383F801D5
:1019500044A755A766A777A791E0958F08C08CEF9D
:1019600006C0F70180839183A283B38380E00F9048
:101970000F90DF91CF911F910F91FF90EF900895FD
:10198000EF92FF920F931F93CF93DF931F92CDB7E8
:10199000DEB78C017B01AE014F5F5F4F61E00E94BB
:1019A000852A811113C09981F801E158FF4F908376
:1019B00097FF04C091E0F701908302C0F701108205
:1019C000F7019081F801E05CFF4F90830F90DF9169
:1019D000CF911F910F91FF90EF9008958F929F925A
:1019E000AF92BF92CF92DF92EF92FF920F931F932D
:1019F000CF93DF938C01EB01FC01808588836B5FC3
:101A00007F4FC8016CDD81114CC01986BE01645F37
:101A10007F4FC8011DDE811144C0BE01605F7F4F52
:101A2000C801D6D581113DC06E01F0E2CF0ED11CA8
:101A300048018CE1880E911C5E01E4E1AE0EB11C00
:101A4000E12CF12CA601B701C8011EDF811129C0CC
:101A5000F40181914F01F50181935F01FFEFEF1ACE
:101A6000FF0A84E0C80ED11CE6E0EE16F10451F73F
:101A7000BE01685C7F4FC80183DF811112C0BE01C7
:101A80006F5F7F4FC801DF91CF911F910F91FF9042
:101A9000EF90DF90CF90BF90AF909F908F900C947D
:101AA0006520DF91CF911F910F91FF90EF90DF9014
:101AB000CF90BF90AF909F908F900895EF92FF923C
:101AC0000F931F93CF93DF93CDB7DEB7EA970FB68F
:101AD000F894DEBF0FBECDBF8C0121E04EEF69E868
:101AE0000E945A2A811105C040E068E8C8010E949E
:101AF000392AF801E559FF4F108288EE93E0BF962E
:101B00009183808380E991E032969183808385E898
:101B10009BE6A1E0B0E0329680839183A283B383F9
:101B200084EA90E7A9E0B0E0EA54F1098083918368
:101B3000A283B383F801148A158A168A178ABE0114
:101B40006F5F7F4FC8014ADFF82E81110AC01982EA
:101B500089E3FE013196D801189601900D928A957D
:101B6000E1F784E690E0F801EE57FF4F9183808320
:101B700084E893E032969183808384EF91E03296FB
:101B80009183808380E09AE033969183808381E023
:101B90007096808341E060E8C8010E94392AE82EEF
:101BA00041E06FEFC8010E94392A8E29F82A40E0EF
:101BB00060E0C8010E94392AF82AAE01465C5F4FF6
:101BC00061E9C8010E94852AF82A8AADF801E85720
:101BD000FF4F808341E060E0C8010E94392AF82A63
:101BE00040E06FEFC8010E94392AF82A40E060E81F
:101BF000C8010E94392A8F29E12CF12C811158C08B
:101C000041E0B701C80165DDFFEFEF1AFF0A96E07A
:101C1000E916F10499F781114BC0F801168E178E61
:101C200040E064E070E0C80154DD811141C040E053
:101C300065E070E0C8014DDD81113AC020E030E080
:101C400042E150E060E070E0C801B8DD811130C0D1
:101C500020E030E440E050E061E070E0C801AEDD3B
:101C6000811126C020E030E043E250E062E070E005
:101C7000C801A4DD81111CC020E030E0A90163E0AF
:101C800070E0C8019BDD811113C08FEFF801E158AE
:101C9000FF4F80834FEF61E0C8010E94392A91E035
:101CA000F801E058FF4F9083811102C072971082B3
:101CB000EA960FB6F894DEBF0FBECDBFDF91CF918D
:101CC0001F910F91FF90EF90089521E00C941E1743
:101CD000CF92DF92EF92FF920F931F93CF93DF93F8
:101CE0001F92CDB7DEB78C01FC01F08441E060E8C3
:101CF0000E94392A41E06FEFC8010E94392A40E072
:101D000060E0C8010E94392AF801E857FF4F40817E
:101D100061E9C8010E94392A41E060E0C8010E94DF
:101D2000392A40E06FEFC8010E94392A40E060E89C
:101D3000C8010E94392AF1E0FF1691F1FF1628F040
:101D400083E0F8123AC044E02CC041E060E0C801F2
:101D50000E94392A91E09983811132C0C12CD12C83
:101D600076019FEFC91AD90AE90AF90A998190FF09
:101D700010C081110EC0E8ECCE16D104E104F104CC
:101D8000F1F0AE014F5F5F4F60E0C8010E94852A0D
:101D9000E8CFF8ECCF16D104E104F10489F40FC0C8
:101DA00042E060E0C8010E94392A811109C0F801AF
:101DB000E058FF4F94E0908303C088EF01C089EFA3
:101DC0000F90DF91CF911F910F91FF90EF90DF90D7
:101DD000CF9008950F931F93CF93DF93EC01062FBD
:101DE0001885111115C074DF002351F0811113C043
:101DF000CE010E946E1981110EC0112319F006C088
:101E0000811109C0C058DF4F83E0888380E003C0A0
:101E10006623E1F3EDCFDF91CF911F910F910895EC
:101E2000CF93DF93EC0140E060E00E94392A41E06B
:101E30006FEFCE010E94392A40E060E0CE010E949F
:101E4000392A40E061E9CE010E94392A41E060E090
:101E5000CE010E94392A40E06FEFCE010E94392A5C
:101E6000811104C0C058DF4F93E09883DF91CF9178
:101E700008953F924F925F926F927F928F929F92BE
:101E8000AF92BF92CF92DF92EF92FF920F931F9388
:101E9000CF93DF93CDB7DEB761970FB6F894DEBF6F
:101EA0000FBECDBF5C014B010CE010E020E030E044
:101EB000AE014F5F5F4F64E10E94212A8111BBC0D8
:101EC0006B8570E0762F66278C85680F711DE8851D
:101ED000F0E0FE2FEE27FF0F2F01612C712CD401B3
:101EE00014964D925D926D927C9217978A8590E040
:101EF000982F8827990F8C0120E030E018960D93D9
:101F00001D932D933C931B970B8110E0102F0027FE
:101F10008C81080F111D51961C930E935097398098
:101F2000D501A656BF4F2D913C91283EB3E03B070B
:101F3000E9F1629FC001639F900D729F900D112483
:101F40008C509E4F68EE73E00E94412FD50154964D
:101F50008D919D910D90BC91A02D8E879F87A88B10
:101F6000B98BD50151962C91222301F1089F600174
:101F7000099FD00C189FD00C1124CD2CDD24E12C0E
:101F8000F12C4C145D046E047F0471F09F01DB01A1
:101F90000E949A2FA30192012C193D094E095F0955
:101FA0000E94552FB90102C060EE7AE8F4017183F6
:101FB0006083CE010D966C017401A3019201632D23
:101FC000C5010E943527811136C09D85D4015296E6
:101FD0009C93F501E557FF4F4081518162817381E8
:101FE000F401448755876687778760807180A28176
:101FF000B381C480D580E680F780408551856285B5
:1020000073852089318985010F5B1F4FF80171822B
:1020100060823296B183A0833296C082D182E282FE
:10202000F38234964083518362837383389631837D
:1020300020833296908361960FB6F894DEBF0FBE70
:10204000CDBFDF91CF911F910F91FF90EF90DF9067
:10205000CF90BF90AF909F908F907F906F905F9048
:102060004F903F900895EF92FF920F931F93CF935D
:10207000DF931F92CDB7DEB77C0100E041E06BE05B
:10208000C7010E94392A182F40E06BE0C7010E9467
:10209000392A182BAE014F5F5F4F63E1C7010E94E1
:1020A000852A812B0F5F9981977029F0033029F0E1
:1020B000882321F303C0033009F484EF0F90DF91EC
:1020C000CF911F910F91FF90EF900895EF92FF92A3
:1020D0001F93CF93DF93EC017B01142F1886642F9D
:1020E00079DE112389F081110FC0B701CE01C1DE65
:1020F00081110AC040E050E0BA01CE01DF91CF91DA
:102100001F91FF90EF90AFCFDF91CF911F91FF9084
:10211000EF900895EF92FF920F93CF93611180C0DB
:10212000443161F4002311F041E001C040E164E872
:10213000CF910F91FF90EF900C94392AC22F7C0120
:10214000453109F05AC041E06FEF0E94392AC82F8B
:1021500040E060E0C7010E94392AC82B40E06FEFE1
:10216000C7010E94392AC82B41E060E8C7010E94DC
:10217000392AC82B42E065E8C7010E94392AC82BDA
:1021800044E06FEFC7010E94392AC82B40E06DEC94
:10219000C7010E94392AC82B41E16CECC7010E949B
:1021A000392AC82B47E06FEFC7010E94392AC82B94
:1021B00040E06EEBC7010E94392AC82B46E06FEF62
:1021C000C7010E94392AC82B49E06CECC7010E9464
:1021D000392AC82B40E06FEFC7010E94392AC82B6B
:1021E00041E06FEFC7010E94392AC82B40E060E050
:1021F000C7010E94392A8C2B36C0223069F030F496
:10220000222381F0213071F541E00DC0233031F0FF
:10221000243041F544E007C042E005C043E003C07C
:1022200086EF21C040E06AE0C7010E94392A81118F
:102230001AC0002311F020E101C020E04FEE64E855
:10224000C7010E945A2A81110EC0F701E65AFF4FBA
:10225000C08340E050E0BA01C701CF910F91FF90D9
:10226000EF9001CF85EFCF910F91FF90EF90089500
:10227000CF92DF92EF92FF920F931F93CF93DF9352
:10228000CDB7DEB7C654D1090FB6F894DEBF0FBE86
:10229000CDBF7C01162FCE0101966C0189E3F601BA
:1022A00011928A95E9F724961FAE1EAE24972796C1
:1022B0001FAE279726961FAE269722961CAE1DAE00
:1022C0001EAE1FAE229761E0C7010E94181A1111BD
:1022D00023C0F701E359FF4F2081223090F431975A
:1022E000408150E060E070E0213031F4413251052E
:1022F0006105710530F40EC04D3051056105710561
:1023000048F0AE014B5B5F4FBE01625C7F4FC7017F
:10231000C3D502C0C701AED38111B9C0F701E756DA
:10232000FF4F8081811104C032976081718102C0AA
:1023300065E171E0C7010E9449218111A8C000E058
:1023400024E040E060E0C701E5DE8111A0C041E08B
:102350006FEFC7010E94392A182FAE014E5B5F4F05
:1023600064E8C7010E94902A182B40E06FEFC70174
:102370000E94392A812B09F08AC0F701EC5AFF4FDD
:1023800024968EAD9FAD249724E0880F991F2A953F
:10239000E1F7A0E0B0E080839183A283B383B6012C
:1023A000C7011CDB811173C089E3F601D7011896C0
:1023B00001900D928A95E1F7AE014A5B5F4F61E0B3
:1023C000C7010E94852A811162C027968FAD279789
:1023D000F701E158FF4F808340E060E0C7010E94B1
:1023E0009A09811154C040E062E0C7010E949A0935
:1023F00081114DC083E0F701E058FF4F8083AE01AB
:102400004C5B5F4F60E0C7010E94771F81113FC0A6
:1024100025968FAD2597F701EC59FF4F8083AE01CC
:102420004C5B5F4F61E0C7010E94771F81112FC095
:1024300025968FAD2597F701E15AFF4F8083AE01B6
:10244000465C5F4F63E0C7010E949D1C81111FC065
:102450008AAD9BADACADBDADF701E05AFF4F8083B7
:102460009183A283B383AE01465C5F4F64E0C701F2
:102470000E949D1C81110BC0F701E55AFF4F4AAD28
:102480005BAD6CAD7DAD4083518362837383CA5B6A
:10249000DF4F0FB6F894DEBF0FBECDBFDF91CF91F7
:1024A0001F910F91FF90EF90DF90CF9008950F93C1
:1024B0001F93CF93DF931F92CDB7DEB78B01AE0191
:1024C0004F5F5F4F63E10E94852A9981492F4770D2
:1024D00050E060E070E0F8014083518362837383D1
:1024E000987109F08AEF0F90DF91CF911F910F91B2
:1024F00008950F931F93CF93DF9300D000D0CDB7F3
:10250000DEB78B01FC01E65AFF4F2081243071F4C5
:10251000BE016F5F7F4FCBDF49815A816B817C8128
:10252000443051056105710581F40BC0AE014F5F68
:102530005F4F64E10E94852A811109C0998190FF53
:1025400004C091E0F801908302C0F80110820F905E
:102550000F900F900F90DF91CF911F910F910895E1
:1025600089C29AC4CF93DF93EC01CB01BA016931E0
:102570002CEC720727E0820791055CF4611520E3DB
:10258000720728EF82072FEF920774F097FF05C0BC
:102590000FC068E17CEC87E090E02AEF30E040E09B
:1025A00050E00E94772F0DC060E070E388EF9FEF4E
:1025B0002AEF30E040E050E00E94772F305F4F4F2D
:1025C0005F4FA90168E2CE01DF91CF910C94442ABC
:1025D0000F931F93CF93DF9300D0CDB7DEB78B015E
:1025E000AE014F5F5F4F68E20E94902A811117C0D1
:1025F00029813A813F70211598E0390708F0305160
:102600009AEF929FA001939F500D1124052E000C6C
:10261000660B770BF80140835183628373830F90BD
:102620000F90DF91CF911F910F9108953F924F929C
:102630005F926F927F928F929F92AF92BF92CF9252
:10264000DF92EF92FF920F931F93CF93DF93CDB75B
:10265000DEB728970FB6F894DEBF0FBECDBF9E83BE
:102660008D83F886EF82CC24CA94DC2C7601AF816E
:10267000B885CD92DD92ED92FC92139748015901F5
:1026800093E0B694A794979487949A95D1F7D9013B
:10269000C80187709927AA27BB2789839A83AB83B0
:1026A000BC832401350123E0440C551C661C771CB7
:1026B0002A95D1F775016401312CC416D506E606BA
:1026C000F70608F040C031103EC0ED81FE81EC0DF0
:1026D000FD1D8081C814D904EA04FB0461F490E074
:1026E000098002C0959587950A94E2F709811A81BD
:1026F0002B813C8103C000E010E0980180FF0EC0F8
:10270000040D151D261D371DAF81B8850D931D9332
:102710002D933C931397332433940AC086950F5F0F
:102720001F4F2F4F3F4F083011052105310531F75D
:10273000BFEFCB1ADB0AEB0AFB0AE8E04E0E511C96
:10274000611C711CBACF28960FB6F894DEBF0FBE7D
:10275000CDBFDF91CF911F910F91FF90EF90DF9050
:10276000CF90BF90AF909F908F907F906F905F9031
:102770004F903F900895DC01CB0126E0B695A795D8
:10278000979587952A95D1F7BC01660F771F660F3D
:10279000771FFB01E85FFD4F81E04081518162813D
:1027A0007381452B462B472B09F480E00895CF9287
:1027B000DF92EF92FF920F931F9368017901E3E09C
:1027C000F694E794D794C794EA95D1F70770112748
:1027D00022273327C416D506E606F70670F4FC0157
:1027E000EC0DFD1D81E090E001C0880F0A95EAF72D
:1027F0009081892B808380E001C08EEC1F910F9126
:10280000FF90EF90DF90CF9008950F931F93AB014F
:1028100006E010E020E030E060EB0E94092A1F9102
:102820000F9108950F931F93AB0106E010E020E095
:1028300030E060EB0E94212A1F910F9108952F92A2
:102840003F924F925F926F927F928F929F92AF9240
:10285000BF92CF92DF92EF92FF920F931F93CF938D
:10286000DF93CDB7DEB765970FB6F894DEBF0FBE26
:10287000CDBF9A8B898B6B8B5D8B4C8B2F87388B65
:10288000170128012AA53BA54CA55DA52F833887F4
:1028900049875A871B861C861D861E862B853C858C
:1028A0004D855E858EA59FA5A8A9B9A928173907CA
:1028B0004A075B07B9F0AE01495F5F4F7A010AA58D
:1028C0001BA52CA53DA5B201A1018C899D89AEDE79
:1028D0006F80788489849A845FEF65167506850613
:1028E000950611F480E028C0C401B3016A0D7B1D78
:1028F0008C1D9D1D40DF9B8989131DC094018301A0
:10290000B201A1018F85988952DFA40193012F5F45
:102910003F4F4F4F5F4F2AA73BA74CA75DA78B8523
:102920009C85AD85BE850196A11DB11D8B879C87B9
:10293000AD87BE87B3CF8EECEAA9FBA92AA53BA53C
:102940004CA55DA52083318342835383811123C02D
:102950006F85788989899A8958DF81111CC0BE01E9
:102960006F5F7F4F89899A895DDFAF85B889FE01E6
:10297000319640E050E0BA014215530564057505F3
:1029800051F02D919191291305C04F5F5F4F6F4F0B
:102990007F4FF2CF8EEC65960FB6F894DEBF0FBE78
:1029A000CDBFDF91CF911F910F91FF90EF90DF90FE
:1029B000CF90BF90AF909F908F907F906F905F90DF
:1029C0004F903F902F900895AF92BF92DF92EF9279
:1029D000FF920F931F93CF93DF93CDB7DEB763972B
:1029E0000FB6F894DEBF0FBECDBF8C015B017C013A
:1029F0008FE7E80EF11CF701D08040EC61E0C801E0
:102A00000E94392A811126C041E0BE016F5F7F4FCD
:102A1000C8015CDB81111EC041E06FEFC8010E945C
:102A2000392A811117C0A50166EBC8010E94902ABE
:102A3000811110C040E06FEFC8010E94392A811156
:102A400009C04D2D61E0C8010E94392A811102C0E0
:102A5000F701D08263960FB6F894DEBF0FBECDBFEC
:102A6000DF91CF911F910F91FF90EF90DF90BF907A
:102A7000AF9008954F925F926F927F928F929F9244
:102A8000AF92BF92CF92DF92EF92FF920F931F937C
:102A9000CF93DF9300D000D0CDB7DEB74C01642ECA
:102AA000152F062FB72E722E41E06FEF0E94392AA4
:102AB00081111AC040E06FE4C4010E94392A8111DB
:102AC00013C04CE26EE4C4010E94392A81110CC08B
:102AD00040E06FEFC4010E94392A811105C044EB28
:102AE00066EBC4010E94392A240123E7420E511CDF
:102AF000F201108231961082319610823196108246
:102B00003196108231961082C12CD12C760177201B
:102B1000A9F0C701B6016C547F4F8F4F9F4F2BDE3A
:102B200081110CC02CE2C216D104E104F10431F091
:102B3000FFEFCF1ADF0AEF0AFF0AEBCFCE010196B3
:102B40009F938F93BF920F931F936F92FF92EF9279
:102B5000DF92CF9284EBA82EB12CC12CD12C16E0A1
:102B6000E12EF12C00E010E09201A40147585F4FE4
:102B7000672DC40164DE0FB6F894DEBF0FBECDBF73
:102B8000811109C0F401E259FF4F91E0908332971F
:102B90006082319670820F900F900F900F90DF91AE
:102BA000CF911F910F91FF90EF90DF90CF90BF904A
:102BB000AF909F908F907F906F905F904F9008950F
:102BC000CF93DF93EC01462F416060E00E94392AE9
:102BD000811112C0CE0182D381110EC040E050E0BD
:102BE000BA01CE0140DA811107C040E060E0CE01B9
:102BF000DF91CF910C94392ADF91CF9108955F92A4
:102C00006F927F928F929F92AF92BF92CF92DF92FC
:102C1000EF92FF920F931F93CF93DF931F92CDB745
:102C2000DEB74C01562EB42ED22E3801198241E067
:102C30006FEF0E94392A182F40E060E0C4010E9423
:102C4000392A182B40E06FEFC4010E94392A182B53
:102C5000552091F0CC2031F0A3016BECC4010E940F
:102C6000852A182BAA20C9F0AE014F5F5F4F6EEE88
:102C7000C4010E94852A10C0CC2031F04B2D6BEC92
:102C8000C4010E94392A182BAA2039F02D2D40E8C2
:102C90006EEEC4010E945A2A182B41E06FEFC40166
:102CA0000E94392A182B41E060E0C4010E94392AB1
:102CB000182B40E06FEFC4010E94392A99819F7E52
:102CC000F7019083812B0F90DF91CF911F910F918E
:102CD000FF90EF90DF90CF90BF90AF909F908F903C
:102CE0007F906F905F9008958F929F92AF92BF9266
:102CF000CF92DF92EF92FF920F931F93CF93DF93C8
:102D00001F92CDB7DEB74C018B01F42EB22E198283
:102D1000222329F0FC01E158FF4FD08001C0D12CC3
:102D200041E061E0C4010E94392A811114C060E4CD
:102D3000C40146DF81110FC091E0F9120CC0A12C33
:102D4000CC24C394FE0131967F0120E040E061E095
:102D5000C40155DF02C0F801108281110DC0BB20F3
:102D600059F04D2D61E0C4010E94392A811104C03F
:102D7000F401E158FF4FD0820F90DF91CF911F9166
:102D80000F91FF90EF90DF90CF90BF90AF909F900A
:102D90008F9008958F929F92AF92BF92CF92DF92C1
:102DA000EF92FF920F931F93CF93DF931F92CDB7B4
:102DB000DEB74C017B01142FB22E222329F0FC0137
:102DC000E158FF4FD08001C0D12C42E061E0C40146
:102DD0000E94392A811113C060E0C401F1DE811123
:102DE0000EC0113061F4AA24A394C12C8E010F5F90
:102DF0001F4F20E040E061E0C40101DF02C0F701A5
:102E0000108281110DC0BB2059F04D2D61E0C4012D
:102E10000E94392A811104C0F401E158FF4FD08289
:102E20000F90DF91CF911F910F91FF90EF90DF9066
:102E3000CF90BF90AF909F908F900895CF92DF92E8
:102E4000EF92FF920F931F93CF93DF93EC016A01F0
:102E5000E22E8C0101581F4FF801F08020E04E2D2A
:102E600043DF811110C020E04E2DB601CE0192DF6C
:102E7000811109C04F2D61E0CE010E94392A8111D4
:102E800002C0F801F082DF91CF911F910F91FF9066
:102E9000EF90DF90CF9008952F923F924F925F92E4
:102EA0006F927F928F929F92AF92BF92CF92DF925A
:102EB000EF92FF920F931F93CF93DF93CDB7DEB7BF
:102EC000A8970FB6F894DEBF0FBECDBF4C017CA310
:102ED0006BA35EA34DA31B861C861D861E861F82C8
:102EE000188619861A861A8A198AFC01E757FF4F35
:102EF000208131813C8B2B8B1C0133E7230E311C4D
:102F0000D1011C922C01B4E74B0E511CF20110822E
:102F1000319610823196108231961082319610824D
:102F200041E06FEF0E94392A8111BFC140E06FE498
:102F3000C4010E94392A8111B8C14CE26EE4C40177
:102F40000E94392A8111B1C140E06FEFC4010E9493
:102F5000392A8111AAC144EB66EBC4010E94392AC7
:102F60008111A3C140E060E8C4010E94392A8111A7
:102F70009CC120E0AE014F5E5F4FBE016E5E7F4F91
:102F8000C4015CDF811191C11B861C861D861E86D3
:102F9000940127583F4F3A8F298F3E013BE0630E43
:102FA000711C7F926F921F921F921F9283E08F93EA
:102FB0001F921F921F921F9244EBA42EB12CC12C82
:102FC000D12C16E0E12EF12C00E010E09101498DAA
:102FD0005A8D60E0C40133DC0FB6F894DEBF0FBE3B
:102FE000CDBF811162C1AB84BC84CD84DE84BE01BF
:102FF000615F7F4FC401E8DC811157C18F859889DB
:10300000AB89BC89A817B90708F05DC0F10110822F
:10301000D2011C9232961082319610823196108223
:1030200031961082C601B5016C547F4F8F4F9F4F70
:10303000A2DB882319F17F926F921F921F921F9239
:1030400083E08F93DF92CF92BF92AF9224EBA22EB8
:10305000B12CC12CD12C16E0E12EF12C00E010E0B7
:103060009101498D5A8D61E0C401E9DB0FB6F894F6
:10307000DEBF0FBECDBF811118C10CC0FCE2AF1680
:10308000B104C104D104B8F6BFEFAB1ABB0ACB0A36
:10309000DB0AC8CFAB84BC84CD84DE84BE01615F13
:1030A0007F4FC40191DC811100C18F8598892B89E4
:1030B0003C892817390780F421E093E0492E512CF0
:1030C000612C712C0DC020E0412C512C32011D8A45
:1030D0001E8A1F8A188E0CC020E0412C512C320110
:1030E00081E090E0A0E0B0E08D8B9E8BAF8BB88F3D
:1030F0008F859889AB89BC898A179B0708F0BBC06C
:1031000026E0F101DE01119601900D922A95E1F77A
:10311000AB89BC898A1B9B0B97FF03C09195819556
:1031200091099C01990F440B550B2F8F38A349A38C
:103130005AA383E0482E512C612C712CA4014D58C8
:103140005F4F58A74FA3CE0107967C0196018501DA
:1031500046E050E060E070E0898D9A8D67DACF80BC
:10316000D884E984FA849FEFC916D906E906F906DE
:1031700009F49AC0C701B6016C547F4F8F4F9F4F1F
:10318000FADA90E0A0E0B0E02D893E894F89588DB1
:1031900082179307A407B50709F06CC0D301C201D9
:1031A0000196A11DB11D8B8F9C8FAD8FBE8F970196
:1031B000860146E050E060E070E0C101F8DA81117C
:1031C00074C0560167019FEFA91AB90AC90AD90A42
:1031D000B101C4011ADB811168C0BE01615F7F4F7C
:1031E000C401F2DB811161C08F859889AC01AB8984
:1031F000BC894A1B5B0B57FF03C051954195510990
:10320000052E000C660B770BEB89FC89E817F90794
:10321000D8F48F8D98A1A9A1BAA184179507A60704
:10322000B70720F5BE016F5F7F4FC401EEDA96E06D
:10323000FE013196D401AD58BF4F01900D929A9581
:10324000E1F78823B9F031C086E0EFA1F8A5DE01EF
:10325000119601900D928A95E1F74B8C5C8C6D8CE8
:103260007E8C4F8F58A369A37AA36DCF4B8C5C8C57
:103270006D8C7E8C2D89ABA1BCA14D925D926D921F
:103280007C921397EDA1FEA12083F401E259FF4F38
:1032900081E0808332978C918083ADA1BEA18C9117
:1032A0003196808380E001C08EECA8960FB6F8942A
:1032B000DEBF0FBECDBFDF91CF911F910F91FF9069
:1032C000EF90DF90CF90BF90AF909F908F907F90C6
:1032D0006F905F904F903F902F900895EF92FF92E4
:1032E0000F931F93CF93DF931F92CDB7DEB77C016F
:1032F000198200E010E0BE016F5F7F4FC701F9D86F
:1033000081110DC09981913051F00F5F1F4F083C22
:10331000110521F0C7010E94A62AEDCF89EF0F9079
:10332000DF91CF911F910F91FF90EF900895CF9271
:10333000DF92EF92FF920F931F938B019C0140E06D
:1033400050E060E070E4041715072607370740F4E3
:10335000A2E07695679557954795AA95D1F7F3CF53
:1033600080E090E0DC014115510561057105F9F03F
:103370006C017D01C40ED51EE61EF71EB695A795FD
:10338000979587950C151D052E053F0540F00C19E6
:103390001D092E093F09840F951FA61FB71FE2E0E4
:1033A0007695679557954795EA95D1F7DCCFBC019F
:1033B000CD011F910F91FF90EF90DF90CF90089576
:1033C000CF92DF92EF92FF921F93CF93DF931F92E2
:1033D000CDB7DEB77C0140E063E80E94392A182FA0
:1033E000811117C0C12CD12CAE014F5F5F4F63E834
:1033F000C7010E94852A182F898181110AC01111E5
:1034000008C08FEFC81AD80A88ECC816D10461F733
:1034100019EF41E063E8C7010E94392A812B0F9020
:10342000DF91CF911F91FF90EF90DF90CF900895A3
:103430002F923F924F925F926F927F928F929F92C4
:10344000AF92BF92CF92DF92EF92FF920F931F93B2
:10345000CF93DF93CDB7DEB72E970FB6F894DEBFCC
:103460000FBECDBF9C0125593F4F3D872C87F901E9
:10347000C080F7E0CF1609F450C1E62E8C0141E080
:1034800060E80E94392AF82E41E06FEFC8010E94DF
:10349000392AF82A40E060E0C8010E94392AF82A57
:1034A00046E06FEFC8010E94392AF82AAE01455F55
:1034B0005F4F63E8C8010E94852AF82A4B85446063
:1034C00063E8C8010E94392AF82A47E06FEFC80173
:1034D0000E94392AF82A41E061E8C8010E94392A8D
:1034E000F82AC8010E94A62AF82A41E060E8C8012B
:1034F0000E94392AF82A2E2D2170222EE0FE54C077
:10350000C0FC52C04BE664E9C8010E94392AD82E9B
:10351000C80156DF8D29F82AAE01495F5F4F60E987
:10352000C8010E949B2AF82A8F819885A985BA85AF
:10353000392F3F77332EEFE0B695A795979587956E
:10354000EA95D1F7E82FE170DE2E44E264E9C80184
:103550000E94392AF82AC80133DFF82AAE01495FF0
:103560005F4F60E9C8010E949B2AF82A8F819885E5
:1035700029853A8539832A839B838C8345E264E9D4
:10358000C8010E94392AF82AC8011ADFF82AAE01B8
:10359000495F5F4F60E9C8010E949B2AF82A89852C
:1035A0009A859D838E8302C0D12C312CFE2DF47020
:1035B000FE87E2FE76C0C2FC74C043E764E9C8013E
:1035C0000E94392AB82EC801FBDE8B29F82AAE01E9
:1035D000495F5F4F60E9C8010E949B2AF82A8F80EB
:1035E0009884A984BA84BA2CA92C982C8824240104
:1035F00035016624772444E764E9C8010E94392A2A
:10360000F82AC801DDDEF82AAE01495F5F4F60E9A4
:10361000C8010E949B2AF82A8F809884A984BA84C2
:103620008B2C9924AA24BB2484289528A628B72863
:1036300045E764E9C8010E94392AF82AC801C0DEBA
:10364000F82AAE01495F5F4F60E9C8010E949B2ADA
:10365000F82A4F80588469847A84762C652C542CFF
:1036600044246624772446E764E9C8010E94392A85
:10367000F82AC801A5DEF82AAE01495F5F4F60E96C
:10368000C8010E949B2AF82A8F819885A985BA854E
:103690008B2F9927AA27BB27482A592A6A2A7B2ACF
:1036A00006C0812C912C5401412C512C320140E058
:1036B00061E8C8010E94392AF82A46E06FEFC80184
:1036C0000E94392AF82AAE01455F5F4F63E8C801BE
:1036D0000E94852AF82A4B854B7F63E8C8010E9427
:1036E000392AF82A41E06FEFC8010E94392AF82AE6
:1036F00041E060E0C8010E94392AF82A40E06FEFFB
:10370000C8010E94392AF82A40E060E8C8010E94F6
:10371000392AF82A09F057C002C0F12C54C02220DF
:1037200011F0C0FE04C02E85211113C048C0F8015D
:10373000E459FF4F30823196D082DE0111963C96DB
:10374000C80181589F4F2D912193E817F907D9F7A8
:10375000EACFC2FC34C0F801E159FF4F39E0880CD0
:10376000991CAA1CBB1C3A95D1F780829182A28237
:10377000B3824114510461047104B1F0A3019201B8
:10378000395141095109A8EEB3E00E94A92FDC018B
:10379000CB0124E0B695A795979587952A95D1F703
:1037A00091958195910902C080E090E0092E000C6E
:1037B000AA0BBB0BF80184839583A683B783EC28FF
:1037C000EC85FD85E0828F2D2E960FB6F894DEBF36
:1037D0000FBECDBFDF91CF911F910F91FF90EF9062
:1037E000DF90CF90BF90AF909F908F907F906F9021
:1037F0005F904F903F902F900895CF92DF92EF927D
:10380000FF926115710581059105D1F0DC01CB01B5
:103810000197A109B10920E030E06C017D01CC24C1
:10382000CD28CE28CF2839F0B695A79597958795BE
:103830002F5F3F4FF2CF322F2227820F931F02C0FC
:1038400080E090E0FF90EF90DF90CF9008958F920E
:103850009F92AF92BF92CF92DF92EF92FF924A0176
:103860005B01A22FB0E020E03FE24AE350E00E947B
:10387000A92F6B017C0124EFC20E21E0D21EE11CB6
:10388000F11CA8EEB3E0A50194010E94A92F4B0101
:103890005C01C701B60120ED37E040E050E00E9436
:1038A000552F820E931EA41EB51EC701B60128EE29
:1038B00033E040E050E00E94552FC501B4010E9462
:1038C000552FCA01B901FF90EF90DF90CF90BF90C4
:1038D000AF909F908F900895CF92DF92EF92FF92DA
:1038E000CF93DF93EB01A42FB0E020E03FE24AE367
:1038F00050E00E94A92F6C507E4F8F4F9F4F28EEB3
:10390000C22E23E0D22EE12CF12CA70196010E94B9
:10391000552FDE010E94A92F6C507E4F8F4F9F4F75
:10392000A70196010E94552FCA01B901DF91CF91DD
:10393000FF90EF90DF90CF900895AF92BF92CF921B
:10394000DF92EF92FF921F93CF93DF93CDB7DEB755
:103950002B970FB6F894DEBF0FBECDBF7C015A0186
:103960001A86198618866330B8F4AE01455F5F4F3A
:1039700060E00E949809182F811108C0AE01465FCF
:103980005F4F66E4C7010E94852A182F6A85862F3B
:1039900090E0A0E0B0E02BC0633081F5AE01455F60
:1039A0005F4F60E00E949809182F811188C0AE0116
:1039B000455F5F4F60E0C7010E949809182F811191
:1039C00008C0AE01485F5F4F61E5C7010E94902AC1
:1039D000182F28853985B9017727CB01A0E0B0E001
:1039E00004C0880F991FAA1FBB1F3A95D2F7BC01CC
:1039F000CD016F5F7F4F8F4F9F4F5DC0643009F0E7
:103A000062C0BE016F5F7F4F0E940A0A8C818823CB
:103A100031F1AE01455F5F4F60E0C7010E94980938
:103A2000182F811141C0AE01485F5F4F61E5C701AA
:103A30000E94902A182F28853985C9019927A0E06E
:103A4000B0E004C0880F991FAA1FBB1F3A95D2F798
:103A50000196A11DB11D6C01111128C002C0C12C1D
:103A6000D12CAE01455F5F4F61E0C7010E9498090C
:103A7000182F81111BC0AE014A5F5F4F61E7C7017C
:103A80000E94902A182F2E813F81C9019927A0E01A
:103A9000B0E004C0880F991FAA1FBB1F3A95D2F748
:103AA0000196A11DB11D04C0C12CD12C80E090E075
:103AB000BC016C197D094B85C7010EDF08C060E0B1
:103AC00070E0CB0104C060E070E0CB0110E0F501D4
:103AD0006083718382839383812F2B960FB6F89432
:103AE000DEBF0FBECDBFDF91CF911F91FF90EF9052
:103AF000DF90CF90BF90AF9008958F929F92AF923A
:103B0000BF92CF92DF92FF920F931F93CF93DF93D9
:103B1000CDB7DEB728970FB6F894DEBF0FBECDBF86
:103B20008C0149015A01633008F5AE01485F5F4FCF
:103B300060E00E949809F82E811197C02885B50190
:103B4000A401C80184DE4FEF613021E0720708F460
:103B5000460FF801E85AFF4F842F90E0918380834D
:103B600066E4C8010E94392AF82E7FC0633021F52F
:103B7000AE01485F5F4F60E00E949809F82E2885EB
:103B8000B501A401C80163DE8827992736DE9F832B
:103B90008E83F801E85AFF4F91838083F11065C04E
:103BA000AC0161E5C8010E94442AF82E81115DC074
:103BB000F801E05AFF4F52C0643009F054C0BE0112
:103BC0006F5F7F4F0E940A0A8C81882331F1AE011A
:103BD000485F5F4F60E0C8010E949809F82E81118C
:103BE00044C0AE014A5F5F4F61E5C8010E94902A60
:103BF000F82E81113AC02E813F81C9019927A0E09A
:103C0000B0E004C0880F991FAA1FBB1F3A95D2F7D6
:103C10000196A11DB11D6C0102C0C12CD12CAE01B9
:103C2000485F5F4F61E0C8010E949809F82E81113A
:103C30001CC02885B501A401C80109DE6C0D7D1DDD
:103C4000811D911DDADDAC0161E7C8010E94442AA3
:103C5000F82E81110AC0F801E55AFF4F8082918247
:103C6000A282B38202C08CEFF82E8F2D28960FB659
:103C7000F894DEBF0FBECDBFDF91CF911F910F91A2
:103C8000FF90DF90CF90BF90AF909F908F9008955E
:103C9000EF92FF920F931F93CF93DF93CDB7DEB7D1
:103CA0002D970FB6F894DEBF0FBECDBF1D8640FD29
:103CB00010C1042F7C01611106C084EF840F87308E
:103CC00008F007C109C0613009F0A1C088EF840F76
:103CD000873008F0FEC01FC04C3011F448E103C02B
:103CE0004E3081F440E367E5C7010E94392A48E07D
:103CF00066E5C7010E94392A8111ECC0102F169584
:103D000011508DC0403111F440E4EDCF423109F043
:103D10007EC040E5E8CF4830F9F440E168E4C701EF
:103D20000E94392A48E067E4C7010E94392A182F07
:103D300042E062E3C7010E94392A182B4CE060E39D
:103D4000C7010E94392A182B41E06FEFC7010E947A
:103D5000392A182B40E34AC04A3099F448E268E413
:103D6000C7010E94392A48E067E4C7010E94392A46
:103D7000182F43E062E3C7010E94392A182B49E05B
:103D800029C04C3099F448E368E4C7010E94392AFD
:103D900048E067E4C7010E94392A182F43E062E334
:103DA000C7010E94392A182B48E014C04E3079F51B
:103DB00048E468E4C7010E94392A48E067E4C70183
:103DC0000E94392A182F43E062E3C7010E94392A72
:103DD000182B47E060E3C7010E94392A182B41E005
:103DE0006FEFC7010E94392A182B40E260E3C70138
:103DF0000E94392A182B40E06FEFC7010E94392A30
:103E0000812B09F067C0102F1695115033C0102F69
:103E100016951150662319F0613061F15AC0AE0158
:103E20004B5F5F4F63E0C70188DD81111FC0AE01AA
:103E30004F5F5F4F62E0C70180DD811117C0412FE6
:103E400060E5C7010E94392A811110C02D813E8191
:103E50004F81588563E0C70150DE811107C0298179
:103E60003A814B815C8162E0C70147DEF701EC5982
:103E7000FF4F19C0AE01475F5F4F64E0C7015DDDD2
:103E800081110EC0412F60E7C7010E94392A8111BC
:103E900007C029853A854B855C8564E0C7012DDE26
:103EA000F701E15AFF4F0083811114C0F7014185EA
:103EB000528563857485C7010E94940981110AC0E7
:103EC00021E040E0BE01635F7F4FC7010E94CA1638
:103ED00001C08CEF2D960FB6F894DEBF0FBECDBF9C
:103EE000DF91CF911F910F91FF90EF9008950F9365
:103EF0001F93CF93DF931F92CDB7DEB78A0166235E
:103F000039F0613099F4AE014F5F5F4F60E704C054
:103F1000AE014F5F5F4F60E50E94852A811107C0A7
:103F200099819F5F990FF801908301C08CEF0F90EA
:103F3000DF91CF911F910F9108958F929F92AF9231
:103F4000BF92CF92DF92EF92FF920F931F93CF9386
:103F5000DF93CDB7DEB72D970FB6F894DEBF0FBE57
:103F6000CDBF00ED17E020E030E00A871B872C87EB
:103F70003D871E821F821886198640322EE4520722
:103F80006105710508F48DC04A015B018C01BE0119
:103F90006F5F7F4F0E940A0A811184C0750164011E
:103FA00086E3C81A8BE0D80AE108F10889818111FB
:103FB00007C08A81811104C08B81882309F441C024
:103FC000AE01465F5F4F62E0C801B7DC81116AC095
:103FD0008981882391F08A859B85AC85BD85825B2C
:103FE0009D4FAF4FBF4F8C159D05AE05BF0508F027
:103FF00058C0C81AD90AEA0AFB0A8B81882369F0DB
:104000008A859B85AC85BD858E549D4FAF4FBF4F34
:10401000880F991FAA1FBB1F0BC08A81882389F0B4
:104020008A859B85AC85BD858C569D4FAF4FBF4F14
:104030008C159D05AE05BF05A0F5C81AD90AEA0A78
:10404000FB0A8C818823C9F0AE014A5F5F4F63E0B1
:10405000C80173DC4E815F81688579854C565D4F60
:104060006F4F7F4F4C155D056E057F05D0F48111B4
:1040700019C0C41AD50AE60AF70A8D81882379F097
:10408000A7019601265232404109510964E0C80156
:1040900034DDF80181869286A386B48603C080E071
:1040A00001C08CEF2D960FB6F894DEBF0FBECDBFCA
:1040B000DF91CF911F910F91FF90EF90DF90CF9004
:1040C000BF90AF909F908F9008958F929F92AF92E4
:1040D000BF92DF92EF92FF920F931F93CF93DF93E4
:1040E000CDB7DEB761970FB6F894DEBF0FBECDBF78
:1040F0007C018B0180ED97E0A0E0B0E08A879B8790
:10410000AC87BD871E821F821886198686E39BE0D6
:10411000A0E0B0E0FB0180839183A283B383BE0162
:104120006F5F7F4FC7010E940A0AD82E81119EC07F
:104130008981811107C08A81811104C08B81882304
:1041400009F448C0AE01465F5F4F62E0C701F5DB8E
:1041500081118BC089818823A9F08A859B85AC85D4
:10416000BD85825B9D4FAF4FBF4FF80140815181AC
:1041700062817381840F951FA61FB71F808391836F
:10418000A283B3838B81882369F08A859B85AC8564
:10419000BD858E549D4FAF4FBF4F880F991FAA1FEB
:1041A000BB1F0BC08A818823A9F08A859B85AC85BB
:1041B000BD858C569D4FAF4FBF4FF8014081518157
:1041C00062817381840F951FA61FB71F808391831F
:1041D000A283B3838C818823E9F0AE014A5F5F4FED
:1041E00063E0C701AADB4E815F81688579854C5603
:1041F0005D4F6F4F7F4FF80180809180A280B38028
:10420000480D591D6A1D7B1D408351836283738352
:1042100081112BC08D8181110BC0F80180819181AA
:10422000A281B381F70181879287A387B4871EC0DB
:10423000AE01425F5F4F64E0C7017FDB4E855F8563
:10424000688979894A5D5D4F6F4F7F4FF8018080A3
:104250009180A280B380480D591D6A1D7B1D40834B
:104260005183628373838823C1F2D82E8D2D61968A
:104270000FB6F894DEBF0FBECDBFDF91CF911F9177
:104280000F91FF90EF90DF90BF90AF909F908F9035
:1042900008952F923F924F925F926F927F928F92EA
:1042A0009F92AF92BF92CF92DF92EF92FF920F93C5
:1042B0001F93CF93DF9300D000D000D0CDB7DEB7EF
:1042C0005C016B0120E030E080E0AE014F5F5F4FAA
:1042D0004A01F501EC57FF4FFE83ED831501F2E82B
:1042E0002F0E311C250146E8440E511C350159E8BA
:1042F000650E711CF601E20FF31F0081002309F423
:1043000086C0811184C079019FEFE91AF90A0F3F35
:1043100009F057C0D601AE0DBF1D9C91790142E056
:10432000E40EF11C913041F1B0F09230C9F19330BC
:1043300009F06AC0D601AE0DBF1D9C91790144E021
:10434000E40EF11C4381292F30E0322F2227240F65
:10435000311DF30122C0D601AE0DBF1D9C91790124
:1043600054E0E50EF11C4381292F30E0322F222743
:10437000240F311DF10111C0D601AE0DBF1D9C915E
:10438000790144E0E40EF11C4381292F30E0322F03
:104390002227240F311DED81FE813183208335C01A
:1043A000D601AE0DBF1D9C91790144E0E40EF11CD5
:1043B0004381292F30E0322F2227240F311DF201B3
:1043C000ECCF053008F5F601EE0DFF1D6081790197
:1043D000F2E0EF0EF11CD601AE0DBF1DF401802FEF
:1043E00090E09F0128193909281739071CF42D91ED
:1043F0002193F7CFE80EF91E10E020E030E0A40191
:10440000C5010E94092A01C08CEF970173CF26963F
:104410000FB6F894DEBF0FBECDBFDF91CF911F91D5
:104420000F91FF90EF90DF90CF90BF90AF909F9053
:104430008F907F906F905F904F903F902F90089556
:10444000BF92CF92DF92EF92FF920F931F93CF9381
:10445000DF931F92CDB7DEB77C016B018A01DA01D1
:104460001D921D921D921C921397BE016F5F7F4F8C
:104470000E94E90AB82E81111FC089818823E1F0CA
:10448000F60180899189D70154962D913D914D91E6
:104490005C915797DC010E94A92FDC01CB01805869
:1044A0009F4FAF4FBF4F892F9A2FAB2FBB27F801DC
:1044B00080839183A283B3838B2D0F90DF91CF9163
:1044C0001F910F91FF90EF90DF90CF90BF900895D4
:1044D000CF92DF92EF92FF920F931F93CF93DF93D0
:1044E00000D000D0CDB7DEB78A01FB01C480D580F3
:1044F000E680F780FA01C082D182E282F382AE01C7
:104500004F5F5F4F9DDF811111C0F801C080D180E6
:10451000E280F38049815A816B817C814C0D5D1D65
:104520006E1D7F1D40835183628373830F900F90B4
:104530000F900F90DF91CF911F910F91FF90EF900F
:10454000DF90CF9008954F925F926F927F928F92FB
:104550009F92AF92BF92CF92DF92EF92FF920F9312
:104560001F93CF93DF93CDB7DEB72C970FB6F89498
:10457000DEBF0FBECDBF4D835E836F83788728017A
:10458000390189869A86AB86BC86FC01E456FF4FCA
:1045900080809180A12CB12C3296608171818281C2
:1045A0009381A50194010E94322FDC01CB01805838
:1045B0009F4FAF4FBF4F692F7A2F8B2F99270E94A4
:1045C000322F69837A838B839C8341145104610465
:1045D000710479F14D815E816F8178853AE0440FF5
:1045E000551F661F771F3A95D1F7D301C201B695C3
:1045F000A795979587958A019B01080F191F2A1F78
:104600003B1FC901B801A30192010E94552FA3E0ED
:10461000B0E00E94A92F9B01AC010E94322F4B01F8
:104620005C0110E8910EA11CB11C4501AA24BB2419
:1046300003C0812C912C5401A701960169857A85CC
:104640008B859C850E94322FDC01CB019058AF4FA7
:10465000BF4FBD01882799279B01AC010E94322FD3
:104660006B017C018F8D98A1A9A1BAA19058AF4F81
:10467000BF4FCD01AA27BB27BC01CD016D5F7F4F86
:104680008F4F9F4F26E0422E512C612C712CA3019D
:1046900092010E94552FA7E0B0E00E94A92F61155A
:1046A000710581409105E8F46F8D78A189A19AA1E7
:1046B0006D5F7F4F8F4F9F4FA30192010E94552F37
:1046C000A7E0B0E00E94A92FDC01CB019058AF4FCA
:1046D000BF4FBD01882799279B01AC010E94322F53
:1046E00004C060E070E080EF9FEF4BA05CA06DA085
:1046F0007EA07694679457944794C40CD51CE61C0E
:10470000F71C6C0D7D1D8E1D9F1D2BA13CA14DA185
:104710005EA10E94552FDA01C9013EE0880F991F62
:10472000AA1FBB1F3A95D1F7BC01CD0161587F4F3D
:104730008F4F9F4F2EEF30E040E050E00E94552F0A
:10474000CA01B901A50194010E94322F6C507E4F1D
:104750008F4F9F4F48EE842E43E0942EA12CB12C16
:10476000A50194010E94552F69017A0154E0CC0CF7
:10477000DD1CEE1CFF1C5A95D1F734EFC30E31E05F
:10478000D31EE11CF11CC701B601A50194010E94D2
:10479000552F29013A0189819A81AB81BC8180968C
:1047A000A11DB11DBC01CD01E6E0969587957795D9
:1047B0006795EA95D1F70E9497194B015C01411466
:1047C000510461047104A9F0C701B60120ED37E07E
:1047D00040E050E00E94552F69817A818B819C8155
:1047E000620F731F841F951FA30192010E94552F12
:1047F00003C020E030E0A901CA01B9010E94971965
:10480000EFA1F8A5681579058A059B0528F0808237
:104810009182A282B38204C0608371838283938376
:1048200080E02C960FB6F894DEBF0FBECDBFDF91AF
:10483000CF911F910F91FF90EF90DF90CF90BF909D
:10484000AF909F908F907F906F905F904F90089562
:104850002F923F924F925F926F927F928F929F9290
:10486000AF92BF92CF92DF92EF92FF920F931F937E
:10487000CF93DF93CDB7DEB7E1970FB6F894DEBFE5
:104880000FBECDBF1C017A87698758A74FA33E8B07
:104890002D8BFC0184899589A689B7898D839E8398
:1048A000AF83B887DB0118962D913D914D915C91B6
:1048B0001B972F8B388F498F5A8F14962D913D91CE
:1048C0004D915C9117972AA73BA74CA75DA7AE0116
:1048D0004F5F5F4FC101FCDDAE014B5F5F4F6985EC
:1048E0007A85C101ADDD182F8111A5C2F101E55A0C
:1048F000FF4F20813181428153812B8F3C8F4D8F1F
:104900005E8F34960081202F4B8D5C8D6D8D7E8D5A
:10491000C1010E94271C698B7A8B8B8B9C8BF101C8
:10492000E05AFF4F80819181A281B3818F8F98A33C
:10493000A9A3BAA334962081AC01BD01C1010E9494
:10494000271C6B017C01083049F422E030E040E094
:1049500050E02D873E874F87588B08C083E090E05A
:10496000A0E0B0E08D879E87AF87B88B89809A8062
:10497000AB80BC80A8EEB3E0A50194010E94A92FF2
:10498000DC01CB019058AF4FBF4F2D016624772437
:104990002D813E814F8158852EA73FA748AB59AB4B
:1049A00030E8830E911CA11CB11C892C9A2CAB2CD5
:1049B000BB24BA2DA92D982D88278BA39CA3ADA32A
:1049C000BEA389839A83AB83BC83411451046104E1
:1049D0007104C9F48EEA97E8AFE8B2E0EFA1F8A558
:1049E00080839183A283B383F101E557FF4F8083D6
:1049F0009183A283B383AD89BE891D921D921D92BE
:104A00001C92139718C229893A894B895C89C20E76
:104A1000D31EE41EF51EA70196016BE0220F331F83
:104A2000441F551F6A95D1F76D857E858F859889BE
:104A30000E94322F6C507E4F8F4F9F4FE8EECE2E4C
:104A4000E3E0DE2EE12CF12CA70196010E94552F08
:104A5000A7E7B6E00E94A92F6C507E4F8F4F9F4F63
:104A6000A70196010E94552F298B39A78A01C501FC
:104A7000B4010E94322F6B017C0130E8C30ED11CBF
:104A8000E11CF11CCD2CDE2CEF2CFF24C114D10431
:104A9000E104F10421F4C12CD12C7601C394A8EED9
:104AA000B3E02F89388D498D5A8D0E94A92F662732
:104AB0007727A30192010E94552F273686E63807F3
:104AC0004807510520F026E636E646E650E0A8E520
:104AD000B2E00E94A92F6D877E878F87988BACE00C
:104AE000B0E0A70196010E94A92F0E9497199B018F
:104AF000AC01220F331F441F551F2F8B388F498F56
:104B00005A8FE985FA85A081B1818289811191C08E
:104B10007201DD24CC242AE939E946E050E00E9404
:104B2000A92F2CE532E140E050E00E94552F2901E9
:104B30003A01A8EEB3E02EA53FA548A959A90E94C5
:104B4000A92F61307105F2E38F07910520F060E035
:104B500070E082E390E0DC01CB01880F991FAA1F6F
:104B6000BB1FA7019601281B390B4A0B5B0BCA011F
:104B7000B9016C507E4F8F4F9F4FE8EE8E2EE3E0D1
:104B80009E2EA12CB12CA50194010E94552FB42F6B
:104B9000A32F922F882789879A87AB87BC87C70165
:104BA000B6016C507E4F8F4F9F4FA50194010E941C
:104BB000552F69857A858B859C850E94552FC90163
:104BC00037FF04C088279927821B930B092E000CFE
:104BD000AA0BBB0BBA2FA92F982F882740E050E0D3
:104BE00061E070E09A01AB01281B390B4A0B5B0BAB
:104BF000C301B2010E94322FDC01CB019058AF4FAC
:104C0000BF4FCD01AA27BB271196BC01CD019695B8
:104C10008795779567959B01AC010E94322F2B01F8
:104C20003C015EE076946794579447945A95D1F787
:104C300004C0412C512C32016394A0E2B3E0A301E3
:104C400092010E94A92FDC01CB019058AF4FBF4FBA
:104C5000BD0188279927CD84DE84EF84F888A0E8F9
:104C6000DA0EE11CF11C6701EE24FF249B01AC016C
:104C70000E94322F4B015C01A7019601C701B601CA
:104C80000E94322F680D791D8A1D9B1D0E94971965
:104C9000DB0199278827BC01CD016E5C7F4F8F4FC8
:104CA0009F4F24E630E040E050E00E94552FCA01BB
:104CB000B9012F89388D498D5A8D0E94552FA5EB4A
:104CC000BBE00E94A92F68577C4E8F4F9F4F20E179
:104CD00037E240E050E00E94552F49015A0121304F
:104CE000304F4105510528F0812C30EF932EA12C37
:104CF000B12CCB8CDC8CED8CFE8C2F8D38A149A196
:104D00005AA1C20ED31EE41EF51E34EFC30E31E0CD
:104D1000D31EE11CF11CC701B60120ED37E040E0D5
:104D200050E00E94552FDA01C901599689879A8768
:104D3000AB87BC87C701B60128EE33E040E050E006
:104D40000E94552F69857A858B859C850E94552FF9
:104D5000CA01B9010E949719B82FA72F962F88274B
:104D6000BC01CD016C507E4F8F4F9F4F28EE33E03A
:104D700040E050E00E94552F69017A01A50194019D
:104D8000C501B4010E94322F4B015C01A7019601BD
:104D9000C701B6010E94322F680D791D8A1D9B1D27
:104DA0000E9497199B01AC01A8EEB3E00E94A92FC5
:104DB0006F3AA7E87A07AFE88A07A2E09A0720F0DF
:104DC0006EEA77E88FE892E0EFA1F8A5608371833F
:104DD00082839383F101E557FF4F60837183828360
:104DE0009383FE89FF932D892F931F930F9339A5EA
:104DF0003F9349894F9358895F938F858F939E8501
:104E00009F93AD85AF9380E2882E83E0982EA12CEE
:104E1000B12C730162010AA51BA52CA53DA54BA1D0
:104E20005CA16DA17EA1C1018EDB182F0FB6F89495
:104E3000DEBF0FBECDBF812FE1960FB6F894DEBF67
:104E40000FBECDBFDF91CF911F910F91FF90EF90DB
:104E5000DF90CF90BF90AF909F908F907F906F909A
:104E60005F904F903F902F9008952F923F924F92D6
:104E70005F926F927F928F929F92AF92BF92CF92EA
:104E8000DF92EF92FF920F931F93CF93DF93CDB7F3
:104E9000DEB76E970FB6F894DEBF0FBECDBF5C01D4
:104EA00029013A011E8F0D8F1A8E198E188E1F8AB6
:104EB0001E8A1D8A19821A821B821C826877862E9E
:104EC000912C93E0959487949A95E1F78B8E882D99
:104ED000882059F08D7F853059F091E09C8F84EFC8
:104EE000880D843038F01C8E05C0E1E0EC8F02C0E4
:104EF000F1E0FC8FAE01465E5F4F60E070E0C501FF
:104F00000E94CF0B9A8D992371F1811112C19E01DC
:104F10002F5F3F4FAE014F5E5F4FB701C50198DC79
:104F2000811107C189819A81F70193838283AE0140
:104F3000435F5F4F60E070E0C5010E94440C4D8507
:104F40005E856F857889411551056105710559F0B8
:104F50003324339409891A892B893C8940175107D6
:104F60006207730708F0312C811108C0AE01485E5A
:104F70005F4F62E070E0C5010E94CF0B988D9923CE
:104F800009F43CC0811146C0AE01475F5F4F62E04B
:104F900070E0C5010E94440C811112C041E06FEF26
:104FA000C50167D281110CC0AE014B5E5F4F66EB4D
:104FB000C501B6D2811104C040E06FEFC50159D2DE
:104FC0009D8940E050E0592F550F60E070E0F501F9
:104FD000ED56FF4F408351836283738309851A85A1
:104FE0002B853C85011511052105310539F0222459
:104FF0002394041715072607370708F0212C811181
:105000000AC0AE01495E5F4F63E070E0C5010E94D7
:10501000CF0B01C0212C9F89992369F1811159C0BF
:105020008D8D9E8D892B69F0962D852D742D66278B
:10503000ED8DFE8D9F0140E050E037D729013A0108
:1050400003C0412C512C3201AE014B5F5F4F63E036
:1050500070E0C5010E94440C4D815E816F817885AE
:10506000411551056105710531F011E044165506F1
:105070006606770608F010E081112CC0FC8D8FEFDA
:10508000F13021F0880D833020F485E0F601808333
:1050900021C0FB8DF63011F0F93011F484E0F6CF29
:1050A000682D6D7F683019F0F1E02F1202C083E0A7
:1050B000EDCFFB8DF43011F0113011F482E0E6CF2A
:1050C000F1E03F1204C081E0F601808302C0F601E6
:1050D000108210E0F6018081811103C0F701138274
:1050E0001282AE01475E5F4F61E070E0C5010E9431
:1050F000CF0B811120C09A8D911102C033243394BB
:10510000F50132A2FB8D91E0F43019F0298D2111C7
:1051100090E0F50193A3988D911102C0222423946D
:10512000F50124A29F89911101C011E0F50115A399
:1051300002C0312C23CF6E960FB6F894DEBF0FBE9F
:10514000CDBFDF91CF911F910F91FF90EF90DF9036
:10515000CF90BF90AF909F908F907F906F905F9017
:105160004F903F902F9008950E94440680E090E079
:1051700008958F929F92AF92BF92EF92FF920F93FA
:105180001F93CF93DF93C62F7A01480159010E94E4
:105190004506882319F08DEF9FEF18C08C2F0E94D1
:1051A0006F06E701CE018E199F09A0E0B0E08815D7
:1051B0009905AA05BB0530F489910E946F068823E2
:1051C00089F3E9CF0E94120780E090E0DF91CF9150
:1051D0001F910F91FF90EF90BF90AF909F908F9095
:1051E00008958F929F92AF92BF92CF92DF92EF92EB
:1051F000FF920F931F93CF93DF93B82EA62EEA0151
:10520000680179010E944506882319F08DEF9FEF10
:105210002DC08A2D0E946F068B2D81600E9445064D
:105220008111F4CF8E014601570181E0881A91085F
:10523000A108B108C8018C1B9D0BA0E0B0E0881547
:105240009905AA05BB0530F40E948806F8018193F0
:105250008F01F0CFF1E0CF1AD108CC0DDD1D0E94F7
:105260009A0688830E94120780E090E0DF91CF9138
:105270001F910F91FF90EF90DF90CF90BF90AF9074
:105280009F908F900895CF93DF931F92CDB7DEB795
:10529000498321E030E0AE014F5F5F4F0E94AC06D2
:1052A000811103C080E090E002C08CEE9FEF0F9070
:1052B000DF91CF910895CF93DF9300D0CDB7DEB7C4
:1052C00059834A8322E030E0AE014F5F5F4F0E9476
:1052D000AC06811103C080E090E002C08CEE9FEF2D
:1052E0000F900F90DF91CF910895CF93DF9300D06F
:1052F00000D0CDB7DEB759834A833B832C8324E0AB
:1053000030E0AE014F5F5F4F0E94AC06811103C0D9
:1053100080E090E002C08CEE9FEF0F900F900F9016
:105320000F90DF91CF9108950F931F93CF93DF9349
:105330001F92CDB7DEB78A01198221E030E0AE01BD
:105340004F5F5F4F0E94D706811106C08981F80127
:10535000808380E090E002C08CEE9FEF0F90DF91A1
:10536000CF911F910F9108950F931F93CF93DF93C8
:1053700000D0CDB7DEB78A011A82198222E030E070
:10538000AE014F5F5F4F0E94D70681110BC089812C
:105390009A81982789279827F8019183808380E054
:1053A00090E002C08CEE9FEF0F900F90DF91CF91B5
:1053B0001F910F9108950F931F93CF93DF9300D008
:1053C00000D0CDB7DEB78A0119821A821B821C82F7
:1053D00024E030E0AE014F5F5F4F0E94D70681119D
:1053E0000DC069817A818B819C819DD5F801608394
:1053F00071838283938380E090E002C08CEE9FEF04
:105400000F900F900F900F90DF91CF911F910F9100
:1054100008950F931F93CF93003411052105310593
:1054200010F0CCEF01C0C0E0FC01EE55FF4F8081D1
:10543000A0DE892B09F0CCEE8C2FCF911F910F911C
:1054400008950F931F93CF93003411052105310563
:1054500010F0CCEF01C0C0E0FC01EE55FF4F8081A1
:10546000C0DE892B09F0CCEE8C2FCF911F910F91CC
:1054700008958E559F4FFC01808105DF892B11F027
:105480008CEE089580E008958E559F4FFC01808139
:1054900012DF892B11F08CEE089580E008958E556F
:1054A0009F4FFC01808121DF892B11F08CEE089544
:1054B00080E00895EF92FF920F931F93CF93DF93B5
:1054C0001F92CDB7DEB7F62EE42E122F8E559F4FCA
:1054D000FC010081AE014F5F5F4F802F25DF892BDC
:1054E00011F08CEE0AC049814E21412B49836F2D6A
:1054F000802FC9DE892BA9F780E00F90DF91CF9133
:105500001F910F91FF90EF9008958E559F4FFC01D2
:1055100080810ADF892B11F08CEE089580E00895D8
:105520008E559F4FFC0180811FDF892B11F08CEE7F
:10553000089580E008958E559F4FFC0180813BDFE8
:10554000892B11F08CEE089580E008952FEF80E70D
:1055500092E0215080409040E1F700C0000080E0E0
:10556000089560E00E948409082E000C990B0895AC
:10557000CF93DF93EC0141111BC063E070E00E9408
:10558000690B20E030E440E050E061E070E0CE01E3
:105590000E94DE0B20E030E042E150E060E070E08D
:1055A000CE010E94DE0B40E45DE063E070E06BC082
:1055B000413029F540E063E070E00E94690B29E981
:1055C00039E140E050E061E070E0CE010E94DE0B86
:1055D00020E030E04CE350E060E070E0CE010E945B
:1055E000DE0B48EE50E860E070E0CE010E949409C6
:1055F00042E160E0CE010E9496094EE04DC042308B
:10560000E1F440E063E070E00E94690B20E030E4E8
:1056100040E050E061E070E0CE010E94DE0B20E04F
:1056200030E040E250E060E070E0CE010E94DE0B2E
:1056300040E654E560E070E026C0433089F541E083
:1056400063E070E00E94690B24ED38E040E050E038
:1056500063E070E0CE010E94DE0B20E030E440E029
:1056600050E061E070E0CE010E94DE0B20E030E00F
:1056700042E150E060E070E0CE010E94DE0B48EEB7
:1056800050E860E070E0CE010E9494094EE060E0D6
:10569000CE010E9496094AE061E0CE010E9496097F
:1056A00080E090E0DF91CF91089541E050E060E02C
:1056B00070E00E943310082E000C990B08950F9390
:1056C0001F93CF93DF93EC018B01BA01A901411520
:1056D00051056105710521F00E94370A63E001C0A0
:1056E00061E0CE010E948409F8018083CE010E940E
:1056F000680EB801CE01DF91CF911F910F91D5CFE8
:105700000F931F93CF93DF93413041F420E030E0BB
:10571000A901DF91CF911F910F91D1CF8B01EC01A6
:105720000E94100FB801CE01DF91CF911F910F9110
:1057300018CF3F924F925F926F927F928F929F927B
:10574000AF92BF92CF92DF92EF92FF920F931F938F
:10575000CF93DF9300D000D01F92CDB7DEB72C01DE
:105760003B01D42E322EE982FA820B831C83CD8238
:10577000FB011082FC01EE55FF4F82E58083F4DCD3
:10578000F3018081811105C0C2010E945E0DF30109
:10579000808349815A816B817C8141155105610566
:1057A000710571F02D81222359F0C2010E94B012BF
:1057B00061E0C2010E943811F301808311E001C051
:1057C00010E0F3018081811103C0111114C002C0E7
:1057D0008E3C89F460E0C2010E943811F30180839D
:1057E000AE014B5F5F4FBE016F5F7F4FC2010E94F2
:1057F000B112F3018083AE01425E5F4FBE01635E72
:105800007F4FC2010E94650EF3018083112319F1BD
:1058100081110CC081149104A104B10439F0B501C7
:10582000A401C2010E948209F3018083F3018081F7
:1058300081112DC089288A288B2889F0498D5A8D9D
:105840006B8D7C8DC2010E94EF0AF301808361E0C1
:10585000C2010E94BB0AF3018081811118C041E09E
:1058600060E070E0C2010E94690BF301808341E0B7
:1058700061E070E0C2010E94690BF3018083432D57
:10588000B301C20175DE4D2DB301C20139DF81E0E4
:10589000F3019081911180E00F900F900F900F9085
:1058A0000F90DF91CF911F910F91FF90EF90DF90BC
:1058B000CF90BF90AF909F908F907F906F905F90B0
:1058C0004F903F9008950F931F93CF93DF93EC0178
:1058D0008B01BA010E94390FB801CE01E6DE80E0EB
:1058E00090E0DF91CF911F910F9108955058BB2701
:1058F000AA270ED070C161D130F066D120F031F40A
:105900009F3F11F41EF456C10EF4E095E7FB4CC125
:10591000E92F72D180F3BA176207730784079507DE
:1059200018F071F49EF58AC10EF4E0950B2EBA2F93
:10593000A02D0B01B90190010C01CA01A001112495
:10594000FF27591B99F0593F50F4503E68F11A1641
:10595000F040A22F232F342F4427585FF3CF4695D2
:1059600037952795A795F0405395C9F77EF41F16F4
:10597000BA0B620B730B840BBAF09150A1F0FF0FBE
:10598000BB1F661F771F881FC2F70EC0BA0F621FAA
:10599000731F841F48F4879577956795B795F7959A
:1059A0009E3F08F0B3CF9395880F08F09927EE0F2C
:1059B000979587950895D4D008F481E008950CD088
:1059C0000AC102D140F0F9D030F021F45F3F19F064
:1059D000EBC0511134C1EEC00FD198F39923C9F334
:1059E0005523B1F3951B550BBB27AA2762177307E5
:1059F000840738F09F5F5F4F220F331F441FAA1F99
:105A0000A9F333D00E2E3AF0E0E830D09150504058
:105A1000E695001CCAF729D0FE2F27D0660F771F06
:105A2000881FBB1F261737074807AB07B0E809F0E8
:105A3000BB0B802DBF01FF2793585F4F2AF09E3F7D
:105A4000510568F0B1C0FBC05F3FECF3983EDCF35A
:105A5000869577956795B795F7959F5FC9F7880FF6
:105A6000911D9695879597F90895E1E0660F771F48
:105A7000881FBB1F621773078407BA0720F0621BD9
:105A8000730B840BBA0BEE1F88F7E0950895BCD01A
:105A900088F09F5790F0B92F9927B751A0F0D1F017
:105AA000660F771F881F991F1AF0BA95C9F712C0A1
:105AB000B13081F0C3D0B1E00895C0C0672F782F16
:105AC0008827B85F39F0B93FCCF38695779567950D
:105AD000B395D9F73EF490958095709561957F4F79
