:100000007AC0000094C0000092C00000D9C2000075
:10001000C6C200008CC000008AC0000088C000007A
:1000200086C0000084C0000082C00000B8C6000086
:1000300095C600007CC000007AC0000078C00000B7
:1000400076C0000074C0000072C0000070C00000E4
:100050006EC000006CC000006AC0000068C00000F4
:1000600066C0000064C0000062C0000060C0000004
:100070005EC000005CC000005AC0000058C0000014
:1000800056C0000076C600007FC6000050C00000C9
:100090004EC000004CC000004AC0000048C0000034
:1000A00046C0000044C0000042C0000040C0000044
:1000B000A1C200000664EC1B3C04BC163E3BE5B943
:1000C0003CC93C37C29E5A3D660498083EEA69AA7C
:1000D000AA3E000000803F05A84CCDB2D44EB938EE
:1000E00036A9020C50B9918688083CA6AAAA2ABE55
:1000F000000000803F0011241FBECFEFD8E0DEBF1C
:10010000CDBF11E0A0E0B1E0EEEFFCE502C005904C
:100110000D92AE35B107D9F725E0AEE5B1E001C0EB
:100120001D92AB3DB207E1F704D00C947D2E42C680
:1001300069C4FEDF0E949E08809168008160809300
:10014000680080916B00806480936B003B984398BB
:100150008091680082608093680080916C00886064
:1001600080936C007894109264018FE792E09093F2
:10017000DC018093DB010091070110910801A12CA3
:1001800054E0C52E52E0D52E68E7E62E61E0F62E4B
:1001900020910E0140E063EC75E00E943829811146
:1001A00007C021E04FEF65E070E080E090E0A7D568
:1001B0006091090170E042E050E085EB95E064D485
:1001C000609107017091080188EE93E00E94942CE1
:1001D00046E08EE791E01DD21092620180911101FC
:1001E000803709F4C9D782E08093060163EC75E09B
:1001F0008091DB019091DC010E94B32980EE00D652
:10020000C0E0D0E09924939438E0832E4EE1A42EF0
:10021000B12C80915F018111FCCF9DD7809162014B
:10022000882309F4A6C180910F01833609F4D3D73E
:10023000109262018091690181110CC08091650169
:10024000882349F080916801882329F080910F016B
:10025000833609F44198809111018D3629F48091FB
:100260006A01811101C07398809110018D3629F4C3
:1002700080916A01811101C0409A47EC51E063EC22
:1002800075E08091DB019091DC010E94C32980918F
:100290006501811104C0909169019923F1F0909159
:1002A00068019923F9F08823E9F080910F018336E2
:1002B00049F463EC75E08091DB019091DC010E94D0
:1002C000B32910C0833771F463EC75E08091DB01D2
:1002D0009091DC010E94B92905C08091060187FF39
:1002E000E8CFE3CF8091D90180937301843071F01E
:1002F000C0916F01D09170018091D7019091D80188
:10030000009721F09093700180936F018091D30149
:100310009091D401A091D501B091D601CD01AA2729
:10032000BB279C0190937201809371018091C90158
:100330009091CA01A091CB01B091CC01B0936E0114
:10034000A0936D018091CD019091CE01A091CF013C
:10035000B091D001B0936C01A0936B0180916F01BB
:10036000909170018838934120F0D0937001C09330
:100370006F012A30310520F0D0937001C0936F01D6
:1003800080916F019091700101974E9720F4B09287
:100390007001A0926F0180916F0190917001909314
:1003A000750180937401909377018093760166E7DD
:1003B00071E085EB95E096D380917601909177017D
:1003C000009709F454C020911301222389F16EE7AC
:1003D00071E054D29093770180937601809163010C
:1003E000882359F020917401309175013093770181
:1003F00020937601815080936301809176019091E2
:1004000077018938934130F48091710190917201A4
:10041000079770F08091630181110AC08091740187
:10042000909175019093770180937601809263019A
:10043000809112018823D9F08091670160910901B0
:10044000861760F420917401309175013093770123
:10045000209376018F5F8093670109C08091B50575
:100460009091B60539D4909377018093760190925C
:10047000660180910601811116C00091070110915B
:100480000801F0900E0180910F0162D42F2D482FAA
:1004900063EC75E08091DB019091DC010E94F4280F
:1004A0008091060102C018161CF481508093060149
:1004B00080916A018111ADCE809111018437C9F418
:1004C00080917601909177016C01E12CF12C4091A3
:1004D0000A0150910B0160910C0170910D014C15B6
:1004E0005D056E057F0520F0892B11F0739801C022
:1004F000739A8091D90183508230B8F1609176016E
:100500007091770180E090E04AE050E00FD687D408
:100510002091760130917701C901A0E0B0E0C09050
:100520000A01D0900B01E0900C01F0900D01C8166B
:10053000D906EA06FB0618F410925E0116C0232BBA
:10054000D9F3A7019601281B390B4A0B5B0BA4E6D4
:10055000B0E00E94E62CA70196012E513109410915
:1005600051090E94A82C20935E0180915E011DD646
:1005700050CE8091690181114CCE80916101882318
:1005800009F447CE109261013B98439A63EC75E001
:100590008091DB019091DC010E94B3293ACE1F9239
:1005A0000F920FB60F9211248F93339903C081E0FD
:1005B000809362018F910F900FBE0F901F9018953E
:1005C0001F920F920FB60F9211248F9380916501A5
:1005D000882329F01E9B02C0419A01C041981E99B0
:1005E00003C081E0809360018F910F900FBE0F9048
:1005F0001F9018951F920F920FB60F9211248F9390
:1006000081E0809361018F910F900FBE0F901F903A
:1006100018952F923F924F925F926F927F928F9296
:100620009F92AF92BF92CF92DF92EF92FF920F9381
:100630001F93CF93DF93CDB7DEB760970FB6F894D3
:10064000DEBF0FBECDBF8C017E836D8382E090E064
:10065000D8018D939C93642F70E080E090E00E941D
:10066000C62AF80166837783808791872BED3FE068
:1006700049E450E40E94782B6B017C012D813E817E
:10068000B90180E090E00E94C62A9B01AC01C7013D
:10069000B6010E94322A0E94E12B4B015C01D80175
:1006A0001A966D937D938D939C931D979B01AC013E
:1006B0000E94782B6B017C01F80166877787808B1D
:1006C000918BA5019401C501B4010E94CA296F83D1
:1006D000788789879A87A701960160E070E080E8B3
:1006E0009FE30E94C9299B01AC010E94CA296B8724
:1006F0007C878D879E87188B0F87212C312CB10129
:10070000032C000C880B990B0E94C82A9B01AC019A
:100710000E94CA2920E030E040E85FE30E94CA2935
:100720002BED3FE049E450E40E94782B20E030E0DC
:1007300040E05EE30E94782B0E94DB2B69837A8382
:100740008B839C832F81388549855A850E94782B1D
:100750002B013C019B01AC01C701B6010E94CA29D3
:1007600020E030E040E85FE30E94CA294B015C01D1
:100770009B01AC01C701B6010E94322AAF85B8893E
:1007800056966D937D938D939C935997A5019401F3
:100790006B857C858D859E850E94322AEF85F88940
:1007A000668F778F80A391A3A3019201C701B60141
:1007B0000E94C92920E030E040E85FE30E94CA2996
:1007C0009058A50194010E94322AAF85B889969667
:1007D0006D937D938D939C939997FD0116A617A613
:1007E00010AA11AAD6961D921D921D921C92D997FD
:1007F000FE961082118212821382BFEF2B1A3B0ADF
:10080000EF85F8893496F88BEF87F2E02F163104E4
:1008100009F075CF89819A81AB81BC81F801828B07
:10082000938BA48BB58B82829382A482B582EA5B80
:10083000FF4F2D813E812C30310518F4118210823A
:1008400004C081E090E09183808360960FB6F894B5
:10085000DEBF0FBECDBFDF91CF911F910F91FF90F3
:10086000EF90DF90CF90BF90AF909F908F907F9050
:100870006F905F904F903F902F9008952F923F92EE
:100880004F925F926F927F928F929F92AF92BF92A0
:10089000CF92DF92EF92FF920F931F93CF93DF934C
:1008A00000D000D000D0CDB7DEB77E836D83BC0111
:1008B00080E090E00E94C62A6B017C01ED81FE8100
:1008C000EA5BFF4F80819181892B09F471C0AD8172
:1008D000BE812D903C9000E010E08D819E810496B9
:1008E0009E838D83021513050CF062C0ED81FE819D
:1008F00042A853A864A875A882AD93ADA4ADB5ADC8
:1009000089839A83AB83BC83228D338D448D558D2F
:10091000C301B2010E94782B4B015C01ED81FE8185
:1009200022A133A144A155A169817A818B819C8147
:100930000E94782B9B01AC01C501B4010E94CA2919
:10094000A70196010E94CA294B015C01AD81BE81BD
:100950009A966D937D938D939C939D97A30192019D
:10096000C301B2010E94CA29A50194010E94CA29AB
:1009700029813A814B815C810E94CA29ED81FE81E7
:1009800022893389448955890E94782B6B017C0127
:10099000AD81BE81DA964D925D926D927C92DD972B
:1009A000FD0182AA93AAA4AAB5AA0F5F1F4F95CFF3
:1009B000C701B6010E949A2ACB0126960FB6F89479
:1009C000DEBF0FBECDBFDF91CF911F910F91FF9082
:1009D000EF90DF90CF90BF90AF909F908F907F90DF
:1009E0006F905F904F903F902F9008953D9A45985B
:1009F00045983C9A44984498F7C3699871986898C8
:100A0000709800C48DE3809365008FEF809364003D
:100A100094B114B895B185B997B1907897B998B158
:100A20009F6798B99AB11AB89BB18BB98DB1807F85
:100A30008DB98EB18F608EB926982E9827982798F9
:100A40002F9A38984098399841983A9A429A3B9808
:100A50003B98439A53985B9855985D986B9A739A14
:100A600040E060E881E690E062D313BE15BED9D3C2
:100A7000BDDFC3DF5498529850986A98569857989B
:100A80002098219822980895CF92DF92EF92FF92BA
:100A90000F931F93CF93DF93EC016B017A01649F57
:100AA0008001659F100D749F100D1124C8010E94D4
:100AB0004C2D99838883080F191F1B830A83DD82BD
:100AC000CC821F821E82F986E8869B878A879D8753
:100AD0008C87DF91CF911F910F91FF90EF90DF9066
:100AE000CF900895CF93DF93EC018E819F812C816D
:100AF0003D81488559858217930791F42C853D8562
:100B0000240F351F3D872C87EA81FB812E173F0775
:100B100021F4288139813D872C8701979F838E831B
:100B20008A859B850E946D2E2A853B8588859985BF
:100B3000820F931F9B878A872A813B8182179307A5
:100B400021F4888199819B878A878E819F81019674
:100B50009F838E83DF91CF91089546C31092BC008E
:100B600094EA9093BC009091BC0097FFFCCF9091C9
:100B7000B900987F983011F081E008958093BB0010
:100B800084E88093BC0081EA96E8A1E0B0E020917F
:100B9000BC0027FD04C00197A109B109C1F78091EC
:100BA000B900887F883111F0803431F780E00895F2
:100BB0008093BB0084E88093BC0081EA96E8A1E0C2
:100BC000B0E02091BC0027FD04C00197A109B10944
:100BD000C1F79091B900987F81E0983209F480E0E4
:100BE000089584EC8093BC0081EA96E8A1E0B0E02F
:100BF0002091BC0027FD04C00197A109B109C1F7EC
:100C00008091BB00089584E88093BC0081EA96E857
:100C1000A1E0B0E02091BC0027FD04C00197A1092C
:100C2000B109C1F78091BB00089584E98093BC00AD
:100C30000895E8C21092DC0094EA9093DC00909151
:100C4000DC0097FFFCCF9091D900987F983011F08D
:100C500081E008958093DB0084E88093DC0081EAE2
:100C600096E8A1E0B0E02091DC0027FD04C00197E8
:100C7000A109B109C1F78091D900887F883111F0AD
:100C8000803431F780E008958093DB0084E880931E
:100C9000DC0081EA96E8A1E0B0E02091DC0027FDCD
:100CA00004C00197A109B109C1F79091D900987FBB
:100CB00081E0983209F480E0089584E98093DC00B3
:100CC0000895009741F0EFECF7E03197F1F700C09D
:100CD00000000197F6CF0895FC0190E020E030E09D
:100CE000961731F041915191240F351F9F5FF8CF36
:100CF000692F70E0C9010E94942CCB0108950F93D5
:100D00001F93CF93DF93C42FD22F739A8B01CB0104
:100D1000D8DFDD23B1F0CF3FA1F42ED2C0E0C3363F
:100D200008F0C0E08C2F41D2C801CBDFCF5FF7CFF6
:100D3000C801C7DF7398C801C4DF739A1C160CF48E
:100D4000C150C111F5CFDF91CF911F910F9108953F
:100D500091E0833609F490E0892F08951F920F9255
:100D60000FB60F92112440980F900FBE0F901F9056
:100D700018951F920F920FB60F92112473980F902F
:100D80000FBE0F901F9018951F920F920FB60F92E3
:100D90001124739A0F900FBE0F901F9018951F92F9
:100DA0000F920FB60F921124409A0F900FBE0F9022
:100DB0001F9018951F920F920FB60F9211240000EA
:100DC0000F900FBE0F901F901895CF93C82F809152
:100DD000D60530DF8C2FC03108F08FE0806E54DFF5
:100DE000CF916BCFCF93C82F843008F0C0E08091B3
:100DF000D60520DF8C2F880F816846DFCF915DCF2D
:100E00008093D6051092C50514DF8091D60512DFB8
:100E100081E23ADF52DF80E0E5DF8AE0D6CF0F9350
:100E20001F93CF93DF938091D60504DF80E02CDF02
:100E3000C6ECD5E08E01888127DF2296F8018181FA
:100E400023DFF5E0C63DDF07A9F7DF91CF911F91C2
:100E50000F9133CF853098F4E82FF0E0EE0FFF1FAD
:100E6000EA53FA4FA62FB0E0A95CBE4F80E8489F36
:100E7000A00111248C91482B50E0518340830895A8
:100E80002F923F924F925F926F927F928F929F929A
:100E9000AF92BF92CF92DF92EF92FF920F931F9388
:100EA000CF93DF93CDB7DEB729970FB6F894DEBFA7
:100EB0000FBECDBF69837A838B839C834987122FB2
:100EC00020E030E0A9010E942E2A87FF0DC0898111
:100ED0009A81AB81BC81B05889839A83AB83BC83F0
:100EE00001E093E09D8303C000E0A4E0AD83E12C2A
:100EF000F12C812C912C30E8A32E3FE3B32EB98541
:100F0000CB2ED12C412E512C612C712CEC14FD04D4
:100F100084F4C301B2010E94C82A9B01AC01C5013F
:100F2000B4010E94782B4B015C018FEFE81AF80A9C
:100F3000EDCFA501940169817A818B819C810E940A
:100F4000782B20E030E040E05FE30E94CA290E9455
:100F50009A2A6B017C01212C312C412C512C32011D
:100F600043949D81E92FF0E0812F90E0A0E0B0E074
:100F70008D839E83AF83B8872E163F0674F4A3013A
:100F800092016D817E818F8198850E94852C2B0135
:100F90003C019FEF291A390AEFCF812F90E0A0E0A2
:100FA000B0E08D839E83AF83B887C414D504E60474
:100FB000F70420F19985915099876D817E818F8109
:100FC00098850E94C82A9B01AC01C501B4010E940A
:100FD000322A4B015C019B01AC0169817A818B81D2
:100FE0009C810E94782B20E030E040E05FE30E948B
:100FF000CA290E949A2A6B017C01D7CF20E030E0F9
:1010000040E85FE3C501B4010E942E2A87FD6DC050
:10101000C114D104E104F104B9F1B12CA4E0A98315
:10102000412E512C612C712CB985BB2311F041E06C
:10103000BB1140E0A9808A2D81508983142F117043
:10104000C701B601A30192010E94A82C412F8A2D4D
:1010500001DF9981923039F4AA94AA94A98210925E
:10106000CB051092CA05C701B601A30192010E94E7
:10107000A82C69017A01B394232B242B252BA1F6EC
:10108000A985AB1588F60AC08FE390E09093CF0551
:101090008093CE0501110BC0B3E025C0002399F069
:1010A000E9818E2F81508983E53068F403C092E096
:1010B0009983E3E0F0E0EE0FFF1FEA53FA4F80E47C
:1010C00090E091838083898187FD0FC0A981A5303D
:1010D00044F4EA2FF0E0EE0FFF1FEA53FA4F1182BB
:1010E0001082B981B150B983EECF29960FB6F8942A
:1010F000DEBF0FBECDBFDF91CF911F910F91FF904B
:10110000EF90DF90CF90BF90AF909F908F907F90A7
:101110006F905F904F903F902F900895CF93C42F82
:101120000E94C82A2C2F40E0CF91AACEF7CF2FB72C
:10113000F894FC01608340832FBF0895EAE7F0E054
:1011400080818F77808380E880BFEEE7F0E0808148
:101150008F638083089583B7817F83BF83B7816066
:1011600083BF83B7816083BF889583B78E7F83BF3A
:1011700083B78E7F83BF0895E5E6F0E080818E7FA0
:1011800080838BE08093910083E690E090939900B8
:101190008093980080E490E090939B0080939A0065
:1011A00086E08093710080E00895833608F082E63F
:1011B00090E090939B0080939A000895E5E6F0E01C
:1011C0008081877F808384E08093A10081E0809389
:1011D000720080E008951092A5001092A400089576
:1011E00088E08093A1000895E4E6F0E080818F77A5
:1011F000808384E08093BC0082E08093B8001092EA
:10120000B9000895E5E6F0E080818F7D808385E474
:101210008093DC008FE08093DA001092DD0080E0A4
:10122000089584B7877F84BF41E268E180E690E05B
:101230007EDF80E008952F923F924F925F926F92EF
:101240007F928F929F92AF92BF92CF92DF92EF9256
:10125000FF920F931F93CF93DF93CDB7DEB76097C5
:101260000FB6F894DEBF0FBECDBF3C01562E302E18
:10127000212E2F87388B8091340190913501A091D8
:10128000360189839A83AB83413031F0423011F4C7
:1012900081E003C082E001C080E0E1E0F0E0EC0F1B
:1012A000FD1FE80FF11D4080CE0101967C018E01EB
:1012B0000B5F1F4F9E01275F3F4FAE01435F5F4FA4
:1012C000642DC3010E942813811124C089809A8053
:1012D000AB80BC80CD80DE80EF80F88409851A85E4
:1012E0002B853C854D855E8598899F93EF85EF938F
:1012F0002F923F92642DC3010E9463130F900F90B1
:101300000F900F90811106C090E2F3019283E65E88
:10131000FC4F508260960FB6F894DEBF0FBECDBF73
:10132000DF91CF911F910F91FF90EF90DF90CF90C1
:10133000BF90AF909F908F907F906F905F904F90F5
:101340003F902F90089540E253E060E070E00C94ED
:10135000E1254F925F926F927F92AF92BF92CF92B0
:10136000DF92EF92FF920F931F93CF93DF93CDB74E
:10137000DEB72E970FB6F894DEBF0FBECDBF413853
:1013800026E9520728E96207710508F063C02A01BF
:101390003B015C01AE01425F5F4F65E00E943D1280
:1013A000811159C0AE01435F5F4F66E0C5010E94E5
:1013B0003D12811150C09E01275F3F4FAE014B5F30
:1013C0005F4FBE016F5F7F4FC501D3D7811143C00F
:1013D0008E85813041F08D85813029F088EE93E053
:1013E000A0E0B0E004C088E893E1A0E0B0E084159C
:1013F0009505A605B70570F573016201C81AD90AEB
:10140000EA0AFB0AC986DA86EB86FC8681E4C816FE
:1014100082E4D8068FE0E806F104E0F40D811E8135
:101420002F81388549815A816B817C81C50155D7CF
:10143000811111C049855A856B857C85F5014587E9
:1014400056876787708BE35EFC4F408251826282D1
:10145000738201C08CEF2E960FB6F894DEBF0FBEDC
:10146000CDBFDF91CF911F910F91FF90EF90DF9053
:10147000CF90BF90AF907F906F905F904F90089506
:10148000CF92DF92EF92FF92CF93DF93EC016A014C
:101490007B01CB01BA0126E0660F771F881F991FD9
:1014A0002A95D1F728EE33E040E050E00E94A82CC6
:1014B000BA01A9014C0D5D1D6E1D7F1DCE01DF918E
:1014C000CF91FF90EF90DF90CF90EDC67F928F92FB
:1014D0009F92AF92BF92CF92DF92EF92FF920F93C3
:1014E0001F93CF93DF93EC01742E48015901A3DEC3
:1014F000811121C0FE01E45EFC4F7082A8EEB3E0D2
:10150000A50194010E94E62CAB01BC01CE0121DFB4
:10151000811111C0B701A601CE01DF91CF911F91BA
:101520000F91FF90EF90DF90CF90BF90AF909F9082
:101530008F907F90A5CFDF91CF911F910F91FF905A
:10154000EF90DF90CF90BF90AF909F908F907F9063
:101550000895CF92DF92EF92FF920F931F9320E2B4
:10156000FC012283E45EFC4F23E02083319720833B
:1015700028EEC22E23E0D22EE12CF12C09E210E05D
:1015800020E030E043E064E0A1DF1F910F91FF9085
:10159000EF90DF90CF900895FF920F931F93CF931A
:1015A000DF938C016230710580F4442381F0FB01EC
:1015B000EE0FFF1FEE0FFF1FE80FF91FEB5DFC4F53
:1015C00080819181A281B38105C08CEF2BC080E026
:1015D00090E0DC01F42EEB016130710569F0BC0193
:1015E000CD013EE096958795779567953A95D1F729
:1015F000C8010E9418150CC0BC01CD0129E09695C8
:101600008795779567952A95D1F7C8010E94291586
:10161000C00FD11FCF5DDC4F81E0F11001C080E031
:10162000888380E0DF91CF911F910F91FF90089503
:10163000CF92DF92EF92FF920F931F93CF93DF939E
:1016400062307105A8F569017A01EB018C01FC019A
:10165000E60FF71FEF5DFC4F808181110EC0CC0FAC
:10166000DD1FCC0FDD1FC00FD11FCB5DDC4FC8824B
:10167000D982EA82FB8280E01CC0CA01B901C13074
:10168000D10559F03EE096958795779567953A95FF
:10169000D1F7C8010E941815E2CF29E096958795E9
:1016A000779567952A95D1F7C8010E942915D7CF5C
:1016B0008CEFDF91CF911F910F91FF90EF90DF9012
:1016C000CF9008950F931F93CF93DF931F92CDB7C1
:1016D000DEB78C01AE014F5F5F4F6EE270E00E949B
:1016E0003528811115C04981416049836EE270E05F
:1016F000C8010E941F2881110BC061E0C8010E942F
:101700002914811105C094E0F801E65EFC4F908336
:1017100019826981623050F481111CC070E041E08F
:10172000C8013ADF99819F5F9983F3CF811112C07D
:1017300020E030E042E150E060E070E0C80178DF96
:10174000811108C020E030E440E050E061E070E04A
:10175000C8016EDF0F90DF91CF911F910F91089517
:10176000CF92DF92EF92FF920F931F93CF93DF936D
:1017700000D000D0CDB7DEB76C018B017A016115C6
:101780007105A9F06130710509F056C0BE016D5FA9
:101790007F4F0E941F154B815C8160E070E029E063
:1017A000440F551F661F771F2A95D1F710C0BE0141
:1017B0006F5F7F4F0E940E1549815A8160E070E093
:1017C0003EE0440F551F661F771F3A95D1F78111F0
:1017D00034C09801220F331F220F331F0C0D1D1D23
:1017E000411551056105710599F4C20ED31EF6012C
:1017F000EB5DFC4F4081518162817381F701408331
:10180000518362837383F801EF5DFC4F108215C032
:10181000F7014083518362837383C20ED31EF601A6
:10182000EB5DFC4F4083518362837383F801EF5D6E
:10183000FC4F91E0908301C08CEF0F900F900F90C0
:101840000F90DF91CF911F910F91FF90EF90DF905C
:10185000CF900895CF93DF9300D000D0CDB7DEB7FF
:10186000FC01DB017C9111969C91119712962C91B1
:10187000129713963C91703140F4903130F420313E
:1018800048F4303110F480E001C08CEF271718F4D1
:101890008CEF24C08CEF9317D8F38111F9CF472F29
:1018A00050E0420F511D4F5F5F4F5595479549835B
:1018B000432F50E0490F511D4F5F5F4F559547959E
:1018C0004A83271B2B83931B9C83233008F393307D
:1018D000F8F2CF01BE016F5F7F4FEDD50F900F90F3
:1018E0000F900F90DF91CF910895EF92FF920F9399
:1018F0001F93CF93DF9300D000D0CDB7DEB78B011D
:10190000BE016F5F7F4FF1D5498150E0BA01660F8C
:10191000771F4B8150E09B01241B350B3595279594
:10192000D8012C932A8130E0220F331FEC81F0E0A4
:10193000D901AE0FBF1F7D01F594E794D801119630
:10194000EC921197460F571F5595479512964C9359
:1019500012972E1B3F0B3595279513962C930F90BE
:101960000F900F900F90DF91CF911F910F91FF90EB
:10197000EF90089546E0FC0162810C9430150C94C0
:101980004C16FC0162810C94D7168F929F92AF92F5
:10199000BF92DF92EF92FF920F931F93CF93DF934B
:1019A000CDB7DEB7CB57D1090FB6F894DEBF0FBE67
:1019B000CDBF7C018B0143E150E06FEF70E0C801C7
:1019C0000E94762EAE014F5F5F4F62E0C7010E941A
:1019D000F917D82E8111B8C08B81F80180838C81D2
:1019E0009DAD9F71EC969FAFEC974BA55CA560E019
:1019F00070E099E0440F551F661F771F9A95D1F745
:101A000042835383648375838FA498A8A12CB12C3F
:101A100029E0880C991CAA1CBB1C2A95D1F7868248
:101A20009782A086B18629893A89338722878FA831
:101A300098ACA12CB12C39E0880C991CAA1CBB1CB9
:101A40003A95D1F784869586A686B7862BAD3CADB0
:101A5000318B208B8D3041F020F48150833038F46D
:101A600002C0813121F485E0F801828B02C0F801C7
:101A7000128AF801828981110EC0EC96EFADEC97C5
:101A8000E450E03128F4F0E0E95BFE4F808101C0D2
:101A90008FEFF801828BF701E35DFC4F808291822A
:101AA000A282B38234964083518362837383AE01F2
:101AB00049585F4F60E070E0C70152DEF701EF5D0B
:101AC000FC4F8081813029F4EC96FFADEC97F63025
:101AD00009F080E0F701ED5DFC4F8083AE014958CD
:101AE0005F4F61E070E0C7013BDEF701EE5DFC4F48
:101AF0008081813029F4EC969FADEC97943009F009
:101B000080E0F701EC5DFC4F8083F8018289811150
:101B10001BC08089918997FF17C0092E000CAA0B62
:101B2000BB0B409118015091190160911A017091FD
:101B30001B0184179507A607B7071CF48EE0828B5C
:101B400003C0F801118A108A8D2DC558DF4F0FB6DA
:101B5000F894DEBF0FBECDBFDF91CF911F910F91E3
:101B6000FF90EF90DF90BF90AF909F908F9008957F
:101B70009F92AF92BF92CF92DF92EF92FF920F931C
:101B80001F93CF93DF93CDB7DEB76B970FB6F89463
:101B9000DEBF0FBECDBF5C0185E0898F83E08A8FF9
:101BA000F501E65EFC4F9080BE01655E7F4FC5018A
:101BB00018D281110EC098EEC92E93E0D92EE12CD7
:101BC000F12C09E210E020E030E043E0692DC5018E
:101BD0007DDC833E09F0C1C0C5010E94FF1B81115D
:101BE000BCC0C5010E940A1C8111B7C04AEF50E079
:101BF00060E070E0C5010E944B288111AEC041E059
:101C000061E877E0C5010E941F288111A6C045E068
:101C100063E876E0C5010E941F2881119EC042E35F
:101C200050E060E070E0C5010E944B28811195C032
:101C300041E060E877E0C5010E941F2881118DC056
:101C400044E050E064E877E0C5010E942A28811151
:101C500084C0CE0101966C0188E2F82E4F2D64E914
:101C600077E0C5010E941F28811123C040E063E88E
:101C700077E0C5010E941F2881111BC045E050E09C
:101C800060E070E0C5010E944B28811112C041E064
:101C900063E877E0C5010E941F2881110AC004E0B3
:101CA00010E020E030E0A60160E977E0C5010E9485
:101CB000B62794E0C90ED11CF394EEE2FE1619F09B
:101CC0008111F7CFCBCF811148C041E063E877E0C5
:101CD000C5010E941F28811140C040E061E877E003
:101CE000C5010E941F28811138C0C5010E940C1C2B
:101CF000811133C0C5010E94FD1B81112EC002E07D
:101D000010E020E030E0AE01475E5F4F64E170E03C
:101D1000C5010E944D27811120C0898DF50184A73E
:101D20008A8D85A706E010E020E030E0AE014F5E2E
:101D30005F4F6DE070E0C5010E944D2781110DC01D
:101D40009989F50195A39A8996A39B8997A39C8964
:101D500090A79D8991A79E8992A76B960FB6F8943C
:101D6000DEBF0FBECDBFDF91CF911F910F91FF90CE
:101D7000EF90DF90CF90BF90AF909F90089561114A
:101D800001C03AC6F4C5CF93DF93CDB7DEB7C156D5
:101D9000D1090FB6F894DEBF0FBECDBF28E0FB011E
:101DA0007996DE015C9601900D922A95E1F7FB0190
:101DB00021A132A13DA32CA323A134A13FA32EA393
:101DC0002AE3B596DE01989601900D922A95E1F7E7
:101DD000FB01218532853F872E8720812D8321813C
:101DE0002E8322812F83238128872481298725819F
:101DF0002A8726812B8727812C8720852D8725857B
:101E00003685398B288B278530893B8B2A8B218916
:101E100032893D8B2C8B238934893F8B2E8B2589EE
:101E20003689398F288F2789308D3B8F2A8FBE01C5
:101E30006F5F7F4F8AD1CF59DF4F0FB6F894DEBF67
:101E40000FBECDBFDF91CF9108950F931F93CF9316
:101E5000DF93CDB7DEB7C156D1090FB6F894DEBF18
:101E60000FBECDBF8B01BE016F5F7F4FCED198E01B
:101E7000FE017C96D801599601900D929A95E1F752
:101E80002CA13DA1F80132A321A32EA13FA134A38F
:101E900023A39AE3FE01B896D801959601900D927E
:101EA0009A95E1F79D81F80190839E8191839F81AE
:101EB000928398859383998594839A8595839B854E
:101EC00096839C8597839D85908728893989368755
:101ED00025872A893B89308B27872C893D89328B3E
:101EE000218B2E893F89348B238B288D398D368B1E
:101EF000258B2A8D3B8D308F278B4E855F8560E04B
:101F000070E04187528763877487CF59DF4F0FB6E0
:101F1000F894DEBF0FBECDBFDF91CF911F910F911F
:101F20000895CF92DF92EF92FF920F931F93CF937A
:101F3000DF9300D01F92CDB7DEB77C01162F1B8236
:101F4000AE014D5F5F4F60E370E00E94352897015E
:101F500028563E4F6901811134C08B81F701EE5B39
:101F6000FE4F8083612FC7010E94EF1B811129C0A2
:101F7000C7010E942F26811124C002E010E020E05A
:101F800030E0AE014F5F5F4F69E870E0C7010E942B
:101F9000B627811106C09981F60190839A81319606
:101FA0009083F60190819F71908381110EC0C701CB
:101FB0000E940E1C811109C060E0C7010E94EF1B46
:101FC00004C0F60190819F7190830F900F900F9045
:101FD000DF91CF911F910F91FF90EF90DF90CF9005
:101FE00008954F925F926F927F928F929F92AF92DD
:101FF000BF92CF92DF92EF92FF920F931F93CF93F6
:10200000DF9300D000D000D0CDB7DEB74C013B014C
:102010000E940A1C811180C0F401E05DFE4FA08087
:10202000B18024018EEE480E511CF201C084D1848F
:10203000E284F384068117812281338144815581B2
:102040006181C4010E940C1E811166C0F201608191
:10205000C40167DF811160C002E010E020E030E0E1
:10206000AE014F5F5F4F69ED70E0C4010E94B6277B
:10207000811152C08981F401EC59FD4F80838A811E
:102080003196808302E010E020E030E0AE014F5F47
:102090005F4F64E170E0C4010E944D2781113CC094
:1020A0008981F40184A78A8185A706E010E020E0F9
:1020B00030E0AE014F5F5F4F6CEA70E0C4010E94F8
:1020C000B627811129C006E010E020E030E0AE0123
:1020D0004F5F5F4F6DE070E0C4010E944D2781119A
:1020E0001BC09981F40195A39A8196A39B8197A324
:1020F0009C8190A79D8191A79E8192A7E856FE4F53
:1021000090819F3031F0903131F09E3029F484EE8F
:1021100003C083EE01C082EEF301808326960FB6E2
:10212000F894DEBF0FBECDBFDF91CF911F910F910D
:10213000FF90EF90DF90CF90BF90AF909F908F90E7
:102140007F906F905F904F900895CF93DF93EC0155
:10215000DC019596FB01349687E101900D928A95FA
:10216000E1F7DE01AA58BF4FFB017B9688E00190A2
:102170000D928A95E1F7FE01E258FF4FDB0195963B
:102180008D919C91969791838083DE01DC96FB0173
:10219000B7968AE301900D928A95E1F76EA57FA527
:1021A00080E090E0FE01EC5FFE4F608371838283EC
:1021B0009383349628A939A93183208332962AA99A
:1021C0003BA9318320833A962081211107C01FA6A5
:1021D0001EA619AA18AA1BAA1AAA13C0FE01EB5E12
:1021E000FE4F408151810E94B71C61157105B1E01D
:1021F0008B07910520F06FEF7FEF80E090E07FA7E5
:102200006EA780E0DF91CF910895CF93DF93EB012C
:10221000DB011496FC01B59627E101900D922A95F9
:10222000E1F7FC01EC5FFE4F4081518162817381D7
:102230004115510521E06207710528F02FEF3FEFAE
:102240003E872D8702C05E874D87FC01E85FFE4F09
:1022500020813181388B2F873296208131813A8BD2
:10226000298BDE015B96E459F10928E001900D927B
:102270002A95E1F7FC01EC57FF4F208131813CA307
:102280002BA33697208131813EA32DA3DE019796A3
:10229000E254F1098AE301900D928A95E1F780E01A
:1022A000DF91CF910895FC01E759FD4FA081B181E5
:1022B000109711F481EF0895FC01418B528B638BD1
:1022C000748BE558FE4F9A01AB010E94E62C6083A7
:1022D00071838283938380E008954F925F926F921F
:1022E0007F928F929F92AF92BF92CF92DF92EF92A6
:1022F000FF920F931F93CF935C012A013B01B90119
:10230000A801FC01E05DFE4FA081B181109711F49E
:1023100081EF1FC0870176019A01AB01C301B201B1
:10232000F50145825682678270862187328743870E
:102330005487E586F6860787108B4501C5E98C1A18
:10234000CEEF9C0ACAEAAC1ACEEFBC0A6D010E941D
:102350004A1DCF911F910F91FF90EF90DF90CF908A
:10236000BF90AF909F908F907F906F905F904F90B5
:1023700008958F929F92AF92BF92CF92DF92EF9289
:10238000FF920F931F93CF93DF93FC01E05DFE4F0D
:102390000190F081E02D309711F481EF61C0890147
:1023A0007A016B01EC01DC01AF58BE4F6C91CF019B
:1023B0000E94181C4B015C01FE01E35AFE4F608134
:1023C00070E080E090E0A50194010E94A61CF60157
:1023D0006083718382839383FE01E559FE4F808180
:1023E00090E0982F882731962081B501A401820FB3
:1023F000911D0E94D61CF7016083718382839383B1
:10240000FE01E159FE4F808190E0982F8827319698
:102410002081B501A401820F911D0E94D61CF801F4
:102420006083718382839383F60180819181A2818D
:10243000B3818D839E83AF83B887F70180819181BB
:10244000A281B38189879A87AB87BC87F801808195
:102450009181A281B3818D879E87AF87B88B80E001
:10246000DF91CF911F910F91FF90EF90DF90CF9070
:10247000BF90AF909F908F9008959C016830C8F4F2
:1024800081E0662329F0062E01C0880F0A94EAF73E
:10249000F901E057FE4F90818923662331F090E0E7
:1024A00002C0959587956A95E2F7FA01808380E0EE
:1024B00008958CEF08950F931F93CF93DF938C01B2
:1024C000EB01AC0142575E4F688189810E94E91D92
:1024D000A80141575E4F6B818A810E94051E80E0F2
:1024E000DF91CF911F910F9108950F931F93CF9379
:1024F000DF938C01EB016F5F7F4FFC01E257FE4FD2
:10250000AE0180810E948A1FAE014D5F5F4FBE0108
:102510006E5F7F4FF801E157FE4F80810E94FC1DE6
:1025200080E0DF91CF911F910F910895EF92FF927C
:102530000F931F93CF93DF9300D0CDB7DEB77C010D
:102540008B011A821982FC01E351FE4FAE014E5FEE
:102550005F4FBE016F5F7F4F80810E948A1F8A811B
:10256000F801808389818183F701E251FE4F8081E8
:10257000982F92959F70F80193838F70828380E0EB
:102580000F900F90DF91CF911F910F91FF90EF90DF
:1025900008950F931F93CF93DF93EC01BC01655D0A
:1025A0007E4F0E940F2081111FC0BE016B5D7F4FC7
:1025B000CE010E943A21811117C08E010D531E4F8A
:1025C000B801CE010E94B22581110EC0BE01625336
:1025D0007F4FC8010E94F71AAE0147595D4F6EED5B
:1025E00070E0CE010E944028FE01E05DFE4F208198
:1025F00031812115304120F42CEC3CEB31832083D8
:10260000811105C0BE0160587F4FCE018FDFDE0112
:10261000AC57BF4F9C91911116C0AE014B575F4F05
:10262000FA01908191110FC09E0120583F4FF9018E
:1026300090819295907F9C93CF57DF4F9881929590
:10264000907FFA019083DF91CF911F910F910895B0
:10265000EF92FF920F931F936150653070F5FC016C
:10266000E655FF4F60817181FA0171836083FC013F
:10267000E255FF4F4081518162817381F9014083AE
:10268000518362837383FC01EA54FF4F408151817F
:1026900062817381F8014083518362837383FC01FB
:1026A000EE53FF4F80819181A281B381F701808336
:1026B0009183A283B38380E001C08CEF1F910F91BF
:1026C000FF90EF9008952F923F924F925F926F92FA
:1026D0007F928F929F92AF92BF92CF92DF92EF92B2
:1026E000FF920F931F93CF93DF93CDB7DEB72B9756
:1026F0000FB6F894DEBF0FBECDBF1C016B875A83A7
:1027000049830F83188729873A872601370128A133
:1027100039A14AA15BA12B833C834D835E836C016D
:102720003AECC31A3EEFD30ABC016A5A7E4FAC01A1
:1027300045595E4F9C0120583E4F8C010E561E4F4E
:102740007C0186E8E80EF11CEB85D1011196EC9333
:10275000119719964D925D926D927C921C97F101A2
:1027600085869686A786B08A8B819C81AD81BE8145
:10277000818B928BA38BB48BFB85F330A9F040F453
:10278000F13079F0F23009F04AC0C6018ED611C09E
:102790008B85843061F0853009F041C0C6010CD7CB
:1027A00008C0C6019FD505C0C601B5D602C0C60186
:1027B000E8D6811135C0E981FA81D601ED93FC9309
:1027C000D1015696FC93EE935597750164019301E0
:1027D00082014F81588569857A85C1017EDD81112D
:1027E0001FC04B815C816D817E81C1012B960FB62C
:1027F000F894DEBF0FBECDBFDF91CF911F910F9137
:10280000FF90EF90DF90CF90BF90AF909F908F9010
:102810007F906F905F904F903F902F9044CD8CEFC2
:102820002B960FB6F894DEBF0FBECDBFDF91CF91D0
:102830001F910F91FF90EF90DF90CF90BF90AF90DE
:102840009F908F907F906F905F904F903F902F90D0
:1028500008958F929F92AF92BF92CF92DF92EF92A4
:10286000FF920F931F93CF93DF93EC0181E0898355
:102870001A828B838C8388EE93E0A0E0B0E08D8396
:102880009E83AF83B88780ED97E0A0E0B0E08987B2
:102890009A87AB87BC8788EC92E3A0E0B0E08D8795
:1028A0009E87AF87B88B84E690E0A0E0B0E0898B8C
:1028B0009A8BAB8BBC8B80E09AE09E8B8D8B1C8EB1
:1028C000FE01E258FF4F8BED97E0918380836623F2
:1028D00011F0CE015EDECE0182519F4FEAD3CE01D0
:1028E00086509F4F01D4BE016C5F7E4FCE0185960E
:1028F00011D4CE01865E9E4F53D4CE018A579F4F8E
:1029000070D4FE01EE5CFE4F80818370805880831E
:102910008D849E84AF84B888C984DA84EB84FC8477
:102920000D811E812F8138854D895E898C898F9319
:102930008B898F938A898F9389898F936981CE013F
:10294000C2DE182FCE010E94A91E0F900F900F908B
:102950000F90812FDF91CF911F910F91FF90EF90FA
:10296000DF90CF90BF90AF909F908F9008950F937E
:102970001F93CF93DF93EC01FC01EB5EFE4F408190
:1029800051818C010C5F1E4FD8016D917D918D910D
:102990009C91EDD761157105B1E08B07910520F091
:1029A0006FEF7FEF80E090E07FA76EA7FE01E85F0A
:1029B000FE4F4081518159AB48AB32962081318125
:1029C0003BAB2AAB3A9681E080833396D8016D9178
:1029D0007D918D919C91008157D7FE01E85EFE4F5D
:1029E00091838083BE016B5D7F4FCE01DF91CF91DC
:1029F0001F910F910C940A21FC0117A616A611AA8B
:102A000010AA13AA12AAEC5EFE4F1082349611820D
:102A10001082BC016B5D7F4F0C940A218B589E4F36
:102A2000FC0180819181FB019183808380E0089586
:102A30008B589E4FFC017183608380E00895895814
:102A40009E4FFC0180819181FB019183808380E016
:102A5000089589589E4FFC017183608380E008953A
:102A60008F929F92AF92BF92CF92DF92EF92FF929E
:102A70000F931F93CF93DF93CDB7DEB7C45BD1091C
:102A80000FB6F894DEBF0FBECDBF7C01DC011296FD
:102A90006C934C01BEE68B1ABEEF9B0AF401848155
:102AA0008F70682B6483E454F109D701A85EBE4F90
:102AB0008D919C9191838083E55BFE4F80818F3F58
:102AC00009F41082D701A856BD4F8C91813081F551
:102AD0008081811123C0A054B1408C91F701E6564A
:102AE000FD4F808380E28C93EA50F14080818076B4
:102AF00071F4D701DA968D919C91DB97880F991F1D
:102B0000880F991FD7969C938E93D69703C0F70191
:102B100017AA16AA453060F445E00AC0813041F496
:102B2000F701E656FD4F8081E254F140808346E094
:102B3000EFEFE40FE63030F4F0E0E95AFE4FC080EA
:102B4000D12C03C083E8C82ED12C08E810E00C1962
:102B50001D09FE013196CF01800F911F5F018E1775
:102B60009F0711F01192FBCF4630E0F0A5014C1900
:102B70005D094F5F5F4F6BE070E0C701855D9E4F61
:102B80000E94AC1F811174C0A5014C195D09435FFF
:102B90005F4F67E170E0C70185960E943E20882361
:102BA00029F066C0453081F3443079F4A5014C1911
:102BB0005D094C5D5F4F60E270E0C7018A5C9E4F2B
:102BC0000E946921882319F053C04330E9F4A5011C
:102BD0004C195D094C5B5F4F66E170E0C7018A5A92
:102BE0009E4F0E94D421811143C0A5014C195D095B
:102BF000465A5F4F67E170E0C70185599E4F0E94BA
:102C00002922882329F034C0423079F34423E9F0A3
:102C100041E750E04C195D09D40114968C91F701FD
:102C2000E058FE4F85FF08C0D7015F968C91982F22
:102C3000916090839387818B4A0D5B1D62E170E008
:102C4000CF010E947922811113C0A5014C195D09A1
:102C50004D575F4F65E070E0C4010E94BF228111B3
:102C600007C020E030E0A501B601C7010E944D2752
:102C7000CC54DF4F0FB6F894DEBF0FBECDBFDF914F
:102C8000CF911F910F91FF90EF90DF90CF90BF9069
:102C9000AF909F908F900895FF920F931F93CF93C3
:102CA000DF93EC018C010A561E4FF80180818F7072
:102CB00080688083BE016E567E4FCE010E94DD2269
:102CC000F82EF80180818F708083EE5FFE4F808147
:102CD000813019F4CE010E94C41E8F2DDF91CF9157
:102CE0001F910F91FF900895DF92EF92FF920F9343
:102CF0001F93CF93DF93CDB7DEB7C45BD1090FB677
:102D0000F894DEBF0FBECDBF7C01D62E81E06817E0
:102D100031F092E0691731F00CE210E005C00DE4EB
:102D200010E002C006E810E020E030E0AE014F5FA6
:102D30005F4F68E870E0C7010E94B62791E09D15DB
:102D400068F4811125C0A7014F595D4FBE01615B39
:102D50007F4F88E390E00E94302402C0DD2061F0C4
:102D6000811116C0A701405C5D4FBE01635D7F4FBE
:102D700081E290E00E94C72381110AC0A701495651
:102D80005E4FBE016F5F7F4F8CE290E00E9409238F
:102D9000CC54DF4F0FB6F894DEBF0FBECDBFDF912E
:102DA000CF911F910F91FF90EF90DF90089543E036
:102DB00057CE2F923F924F925F926F927F928F9257
:102DC0009F92AF92BF92CF92DF92EF92FF920F93BA
:102DD0001F93CF93DF934B015C017A0169011801C6
:102DE000FA018381F8018283E801249610E003E16F
:102DF000412C48E0542E612C712C1883F7019381EB
:102E00008181911106C0982F9F71993011F408AFFC
:102E100002C08F7188AFF701113009F465C082815B
:102E2000873019F48289938908C0F701883019F432
:102E30008489958902C0848195819D878C87F7015B
:102E4000808991899FA38EA38689978999A788A74E
:102E5000808591859BA78AA782859385A0E0B0E0B5
:102E600035E0880F991FAA1FBB1F3A95D1F700972D
:102E7000F1E0AF07B10520F08FEF9FEFA0E0B0E0E9
:102E80009BAB8AABF701848595859DAB8CABA68502
:102E9000B785A50194010E94E62C7C5F8F4F9F4F60
:102EA000A30192010E94CA2C3FAB2EABF601848194
:102EB0009581A681B7818E8F9F8FA8A3B9A38085A6
:102EC0009185A285B3858AA39BA3ACA3BDA384856A
:102ED0009585A685B7858E879F87A88BB98B8081BE
:102EE0009181A281B38157C0808D918D9D878C8700
:102EF000828D938D9FA38EA38FEF9FEF99A788A7B5
:102F0000848D958D9BA78AA7868D978DA0E0B0E0D4
:102F100025E0880F991FAA1FBB1F2A95D1F700979C
:102F2000E1E0AE07B10520F08FEF9FEFA0E0B0E049
:102F30009BAB8AABF70180A191A19DAB8CABA2A109
:102F4000B3A1A50194010E94E62C7C5F8F4F9F4F97
:102F5000A30192010E94CA2C3FAB2EABF6018489DB
:102F60009589A689B7898E8F9F8FA8A3B9A3808DD5
:102F7000918DA28DB38D8AA39BA3ACA3BDA3848D99
:102F8000958DA68DB78D8E879F87A88BB98B8089ED
:102F90009189A289B3898A8F9B8FAC8FBD8FE99667
:102FA0001F5F123009F029CFF1011382F7018181EF
:102FB0008F718D3041F028F49FEF980F933018F007
:102FC00005C0813119F4F101838314AEDF91CF91F3
:102FD0001F910F91FF90EF90DF90CF90BF90AF9037
:102FE0009F908F907F906F905F904F903F902F9029
:102FF0000895AF92BF92CF92DF92EF92FF920F931C
:103000001F93CF93DF93EC015A016C018CE5C81A32
:103010008DEFD80ACE0168DEF82E81110FC0FE01B7
:10302000E258FF4F6081718180E090E086019E014F
:10303000205C3D4FAE0149565E4FBBDEFE01E856B7
:10304000FD4FE080E1E0EE121DC08E0107561D4FDE
:10305000F1100FC0F8018081811106C0CE01B9D6F0
:10306000F82EF801E08205C0813019F482E0F80101
:103070008083F80180818F3F29F0F11003C0CE01D9
:10308000D2D6F82E8D8DF601808389A1818386E7C3
:10309000D50101900D928A95E1F78F2DDF91CF91A7
:1030A0001F910F91FF90EF90DF90CF90BF90AF9066
:1030B0000895FC0188E080838BE0818388EE93E0B3
:1030C000A0E0B0E082839383A483B58380E09AE09C
:1030D0009783868380E095E09187808780E094E104
:1030E0009387828780E00895FC01108282E18183CA
:1030F0008FE0828382E0838380EA9CE8A0E0B0E0F6
:1031000084839583A683B7838CE090E09187808742
:1031100080E008950F93CF93DF93DC01FB011996B4
:103120006D917C911A9780E090E060837183828337
:1031300093831B964D915C911C97558344831D96F8
:103140002D913C911E9737832683608771878287F4
:1031500093875587448737872687128A118AA0E488
:10316000A38B611571058105910541F44115510548
:1031700029F42115310511F4108A02C0A1E0A08BB9
:10318000A089A13031F4EF0100E47ED39D8B8C8BBC
:1031900002C0158A148A80E0DF91CF910F910895C3
:1031A000FC0180E09AE09183808388EE93E0A0E0C8
:1031B000B0E082839383A483B58388EC92E3A0E09C
:1031C000B0E086839783A087B18782879387A4879F
:1031D000B58788E0868788E2878789E0808B80E0F2
:1031E0000895FC0183E090E89183808381E090E87A
:1031F0009383828381E490E8958384832EE0268301
:103200009AE0978386E0808721879287838782E090
:10321000848791E2958717861686108A28E631E022
:10322000328B218B348B238B368B258B20EC30E03B
:10323000308F278B328F218F348F238F98E0958F9B
:1032400090E1968F91E0978F80A391A382A313A220
:1032500080E09AE095A384A397A386A380E390E8F7
:10326000A0E0B0E080A791A7A2A7B3A788EE93E063
:10327000A0E0B0E084A795A7A6A7B7A780ED97E048
:10328000A0E0B0E080AB91ABA2ABB3AB84AB95ABAD
:10329000A6ABB7AB88E196EFA0E0B0E084AF95AF06
:1032A000A6AFB7AFDF01A05CBF4F48EC52E360E0D0
:1032B00070E04D935D936D937C93139781E090E064
:1032C000A0E0B0E080AF91AFA2AFB3AFEC5BFF4F37
:1032D00080E49FE1A0E0B0E080839183A283B38388
:1032E00080E00895CF92DF92EF92FF920F931F93A9
:1032F000CF93DF93FC01DB01690180E09AE09183C9
:10330000808312821382148215821682178210869D
:1033100011861286138681E1848792E0958716864E
:10332000978778E0708B118AE7018D8D828B8E8D67
:10333000838B8F8D848B81E0858B168A178A118E03
:10334000108E2FEF228F3889338F3C85348F158E66
:10335000168E178E1C9211961C92119760E212968F
:103360006C9312973BE013963C931397EE85FF8581
:103370001596FC93EE93149716969C931697EDE092
:103380001796EC931797ED851896EC931897199666
:103390001C9219971A968C931A971C961C921E923F
:1033A0001B971E961C921E921D97E0E0FCE850961B
:1033B000FC93EE931F9751961C925197E8E3529617
:1033C000EC93529753962C93539754968C93FA01FF
:1033D0001082EAE1DA011196EC93119712961C9291
:1033E000129713966C93139714968C9314976CEC16
:1033F00015966C93159716963C93169717968C9383
:10340000179765EF18966C93189769E019966C9367
:103410001997EB89FC891B96FC93EE931A97E98D1B
:10342000FA8D1D96FC93EE931C971E967C931E9727
:1034300078E71F967C93EA01188A198A1A8A1B8AF0
:103440001C8AF601808312821182148213821582F3
:10345000D70190964C919097468337836087179653
:103460003C91179731871A963C911A973287838738
:1034700093963C919397348792963C91358737EC9D
:10348000368727872BED208B918BE80119828A8361
:103490008B8381E28C8380E0DF91CF911F910F912C
:1034A000FF90EF90DF90CF900895AF92BF92CF92B0
:1034B000DF92EF92FF920F931F93CF93DF93EA0176
:1034C000690110DF81111CC027E02E8395E09987E8
:1034D000F701458956895B874A87438D548D5D87FF
:1034E0004C8738E03E8738E33F87F6012783908793
:1034F000F7019085F6019187F7019385F601928790
:10350000DF91CF911F910F91FF90EF90DF90CF90BF
:10351000BF90AF900895AF92BF92CF92DF92EF929B
:10352000FF920F931F93CF93DF93EA016901DADED5
:1035300081111CC02FE02E839DE09987F7014189FE
:1035400052895B874A874789508D5D874C8738E071
:103550003E8738EB3F87F60127839087F7019681F6
:10356000F6019187F7019185F6019287DF91CF915E
:103570001F910F91FF90EF90DF90CF90BF90AF9091
:103580000895CF92DF92EF92FF920F931F93CF9304
:10359000DF936B01E901A6DE811105C092E0F6011F
:1035A00092879BE3988BDF91CF911F910F91FF90B2
:1035B000EF90DF90CF900895CF92DF92EF92FF923D
:1035C0000F931F93CF93DF936B01E9018BDE811182
:1035D00005C092E0F60192879BE5988BDF91CF9131
:1035E0001F910F91FF90EF90DF90CF900895DC0135
:1035F000FB011A968C911A9780831B968C911B97CE
:1036000081831C968C911C9782831D968C911D97AB
:1036100083831E968C911E9784831F968C911F978F
:10362000858350968C915097868351968C915197B3
:10363000878352968C915297808753968C9153979B
:10364000818754968C915497828755968C91559783
:10365000838756968C915697848757968C91579767
:10366000858758968C915897868759968C9159974B
:1036700087875A968C915A97808B5B968C915B9733
:10368000818B5C968C915C97828B5D968C915D971B
:10369000838B5E968C915E97848B5F968C915F97FF
:1036A000858B90968C919097868B91968C91919723
:1036B000878B92968C919297808F93968C9193970B
:1036C000818F94968C919497828F95968C919597F3
:1036D000838F96968C919697848F97968C919797D7
:1036E000858F98968C919897868F99968C91878FD5
:1036F0000895FA01E60FF71FE417F50721F082930A
:10370000892F90E0F9CF08959B01280F391F80E0A1
:1037100090E06217730739F0982F8827FB014191D9
:10372000BF01842BF6CF0895FA01E60FF71FE417C7
:10373000F50729F08293892F990F990BF8CF0895F7
:10374000FB012081022E000C330B330F220B322F92
:10375000860F971FE817F90729F0322F222741918A
:10376000242BF8CFC9010895F901E40FF51FE217E2
:10377000F30731F06293672F782F892F9927F7CFBE
:103780000895FB019B01280F391F60E070E0CB0119
:10379000E217F30749F0B82FA72F962F88274191FA
:1037A000BC01CD01642BF4CF0895FB014081042EB0
:1037B000000C550B660B770B770F440B542FBA0197
:1037C0008E0F9F1FE817F90739F0762F652F542FBA
:1037D00044272191422BF6CFCB01BA010895462F01
:1037E00067E270E00C941F28462FFC01EC56FE4F58
:1037F000608365E870E00C941F2861E0F5CF60E01D
:10380000F3CF462FFC01EE56FE4F608363E870E075
:103810000C941F2861E0F5CF60E0F3CFFC01EB567C
:10382000FE4F21E0208341E066E870E00C941F2801
:10383000CF92DF92EF92FF92CF93C62F5CD36B01B2
:103840007C018C2F64D3E82FA0E0B9E0A70196019A
:103850000E94E62C9B01AC0186E056954795379572
:1038600027958A95D1F7AE2FB0E00E94E62C26E08E
:1038700096958795779567952A95D1F7CF91FF9083
:10388000EF90DF90CF900895AF92BF92CF92DF92EA
:10389000EF92FF920F93CF93DF935A01E90124E057
:1038A000660F771F881F991F2A95D1F728EE33E0FE
:1038B00040E050E00E94CA2C69017A01B7FE05C0C1
:1038C000662777276A197B0902C060E070E0D7FF9E
:1038D00004C0D195C195D10902C0C0E0D0E06C0F01
:1038E0007D1F85E0660F771F8A95E1F7072E000C94
:1038F000880B990B28EE33E040E050E00E94CA2C80
:103900002C0D3D1D4E1D5F1DA02FB0E00E94E62C2A
:10391000605F7F4F8F4F9F4F20E230E040E050E0EC
:103920000E94CA2C2115310581E04807510514F485
:10393000C90102C08FEF9FEFDF91CF910F91FF90F0
:10394000EF90DF90CF90BF90AF9008950F930E94BB
:10395000F02C385F4F4F5F4F6F4F7F4F8F4F9F4F10
:103960000CE00E94192DB901CA010F9108950F931F
:103970001F938A01550F220B330BDC01CB01800F03
:10398000911FA21FB31F009724E0A207B10524F0E6
:103990008FEF9FEFA3E0B0E0BC01CD0197FF03C024
:1039A00060E070E0CB011F910F9108950F931F937A
:1039B000FC01CB01BA019F013327890120E030E0EF
:1039C00004C0000F111F221F331FFA95D2F7A9015F
:1039D00098012F5F3F4F4F4F5F4F0E94F02C385F91
:1039E0004F4F5F4F6F4F7F4F8F4F9F4F0CE00E94A5
:1039F000192DB901CA011F910F910895CF92DF923D
:103A0000EF92FF926115710581059105D1F0DC01FE
:103A1000CB010197A109B10920E030E06C017D01E3
:103A2000CC24CD28CE28CF2839F0B695A7959795E8
:103A300087952F5F3F4FF2CF322F2227820F931FA0
:103A400002C080E090E0FF90EF90DF90CF9008956B
:103A5000CF92DF92EF92FF9269017A01F694E79498
:103A6000D794C794DC01CB01FCE0880F991FAA1FF3
:103A7000BB1FFA95D1F7BC01CD016C0D7D1D8E1DCC
:103A80009F1D0E94A82CCA01B901FF90EF90DF9002
:103A9000CF90B4CF2F923F924F925F926F927F92CE
:103AA0008F929F92AF92BF92CF92DF92EF92FF924E
:103AB0000F931F93CF93DF93CDB7DEB728970FB641
:103AC000F894DEBF0FBECDBFC114D10409F467C0A6
:103AD0009A828982B886AF821601EB82FC820D83BE
:103AE0001E8349015A016B017C01E981FA816681DB
:103AF000C1019EDE2B013C01DC01CB01B695A795EF
:103B0000979587953CE0CC0CDD1CEE1CFF1C3A958C
:103B1000D1F7BC01CD016C0D7D1D8E1D9F1DA30134
:103B200092010E94A82C2F3F31054105510529F033
:103B300020F02FEF30E040E050E0EF81F885278360
:103B4000A3019201C501B40183DFE981FA81908369
:103B50008183A30192016B817C818D819E8178DFBD
:103B6000E981FA81948385836185C10161DE6B01FE
:103B70007C019B01AC01C501B4016ADFE981FA81D6
:103B800092838383A70196016B817C818D819E81C5
:103B90005FDFE981FA819783808780E001C081EF50
:103BA00028960FB6F894DEBF0FBECDBFDF91CF9140
:103BB0001F910F91FF90EF90DF90CF90BF90AF904B
:103BC0009F908F907F906F905F904F903F902F903D
:103BD0000895883040F0660F660F660F6157681BC6
:103BE000FA01608308959FE0961BF8E09F9F800D87
:103BF0001124FA0180830895982F92959F70FA01FD
:103C000090838F70FB018083089590E1699F800D00
:103C10001124FA01808308952F923F924F925F9270
:103C20006F927F928F929F92AF92BF92CF92DF92CC
:103C3000EF92FF920F931F93CF93DF9300D01F92C9
:103C4000CDB7DEB74C016B8319012A013801C501DC
:103C5000EFDD9B01AC018CE0220C331C441C551C95
:103C60008A95D1F7DA01C901B695A79597958795F9
:103C7000BC01CD01620D731D841D951D0E94A82CF1
:103C8000F401E35AFE4F2F3F31054105510521F064
:103C900018F08FEF808301C0208324018FE8481A39
:103CA0008EEF580A8B81D2018C9340816BE470E0D7
:103CB000C4010E941F28811107C0D2014C9160E607
:103CC00070E0C4010E941F28F201908199839A83B9
:103CD00081110CC002E010E020E030E0AE014F5F47
:103CE0005F4F68E770E0C4010E944D27D401D5966C
:103CF0007C926E92D497811116C0A3016CE170E0A2
:103D0000C4010E942A2881110EC0A70164E670E058
:103D1000C4010E942A28811106C0A60166E670E04F
:103D2000C4010E942A280F900F900F90DF91CF912D
:103D30001F910F91FF90EF90DF90CF90BF90AF90C9
:103D40009F908F907F906F905F904F903F902F90BB
:103D50000895FC01E956FD4F23E02083319610823F
:103D600031961082319610823196108231961082EF
:103D7000319610823196108211821282138234960B
:103D80001182108280E00895FC01E756FD4F2FEF6D
:103D9000208334961082319610821182128213820F
:103DA00034961182108237972081222319F0E6562B
:103DB000F1402083FC01E456FD4F2081222319F0BD
:103DC000EA56F1402083FC01E15AFE4F108280E068
:103DD0000895CF93DF93DC01AB5CBE4F3C91FC01B7
:103DE000E556FD4F3083E956F1402081EC01C45681
:103DF000DD4F28833F773C93AE59BE4F3C91330F44
:103E0000330F2370230F2083BD9621E02083EC5FC6
:103E1000FE4F2081FA962083E454F140208380E015
:103E2000DF91CF910895CF92DF92EF92FF920F939F
:103E30001F93CF93DF93EC01FC01E556FE4F2081E9
:103E400031818E559D4F6C01F6977F018E01005A8E
:103E50001E4F21153105D1F1EE5BFF4F608171815D
:103E6000389780819181680F791FCB01A0E0B0E085
:103E70007727662740E050E00E94A82CFE01E2561A
:103E8000FD4F208331834283538321153105410542
:103E90005105E1F0CA5CDE4F68817981CB01A0E079
:103EA000B0E0772766270E94A82C21153105F1E0A4
:103EB0004F07510520F02FEF3FEF40E050E0F601B3
:103EC00031832083F7013183208308C080E090E8AC
:103ED000F60191838083F7019183808382E0F8016A
:103EE000808380E0DF91CF911F910F91FF90EF9041
:103EF000DF90CF9008959C0140E050E060E070E0DA
:103F000080E090E40E94A82CCA01B90108958F5F57
:103F1000880F0895282F30E087FF0FC080958770A5
:103F2000885FFB0180832058310963E03595279530
:103F30006A95E1F7FA01208308958770FB01808379
:103F40008FE790E0821B930B23E0959587952A9548
:103F5000E1F7FA01808308950F931F93CF93DF93C6
:103F60006B30710528F1EA018C01FC0180818F77AB
:103F7000888381818F70898382818F778A8383810F
:103F800083708B8384818F778C834B5F5F4F62E07C
:103F900070E085819681ADDBF80187818F83808514
:103FA000888781858F73898782858A8780E001C0B1
:103FB00086EFDF91CF911F910F9108950F931F937B
:103FC000CF93DF930B9728F1EA018B01FB018081EE
:103FD0008F77888381818F70898382818F778A83AD
:103FE000838183708B8384818F778C836B5F7F4F1A
:103FF00082E090E089DB9E838D83F80187818F8347
:104000008085888781858F73898782858A8780E00C
:1040100001C086EFDF91CF911F910F910895EF922C
:10402000FF920F931F93CF93DF93CDB7DEB72B97FC
:104030000FB6F894DEBF0FBECDBF7B010BE010E0E2
:1040400020E030E0AE014F5F5F4F61E070E08ED75F
:10405000811107C0A701BE016F5F7F4F8BE090E029
:10406000ADDF2B960FB6F894DEBF0FBECDBFDF914C
:10407000CF911F910F91FF90EF9008950F931F9391
:10408000CF93DF936731710508F458C0EA018C01C2
:10409000FC01808188838181898382818A838381F5
:1040A0008B8384818C8385818F708D8386818E83C1
:1040B00087818F738F83808583708887475F5F4F89
:1040C00062E070E08185928514DBAE01455F5F4F51
:1040D00062E070E0F8018385948526DBAE01435FE2
:1040E0005F4F62E070E0F801858596851DDBAE01CB
:1040F000415F5F4F62E070E0F80187859089F9DAEF
:10410000AE014F5E5F4FF8018189928962E070E0F5
:104110009F710ADBAE014D5E5F4F62E070E0F80117
:104120008389948901DBAE014B5E5F4F62E070E0F2
:10413000F80185899689F8DA80E001C086EFDF9181
:10414000CF911F910F9108950F931F93CF93DF93FA
:10415000479708F459C08A01EB018881FA018083EE
:10416000898181838A8182838B8183838C8184830B
:104170008D818F7085838E8186838F818F738783F6
:10418000888583708087675F7F4F82E090E0BCDA2C
:10419000F80192878187BE01655F7F4F82E090E0E2
:1041A000CFDAF80194878387BE01635F7F4F82E097
:1041B00090E0C6DAF80196878587BE01615F7F4F80
:1041C00082E090E0A1DAF801908B8787BE016F5EF4
:1041D0007F4F82E090E0B4DA9F71F801928B818B7F
:1041E000BE016D5E7F4F82E090E0AADAF801948B09
:1041F000838BBE016B5E7F4F82E090E0A1DAF80115
:10420000968B858B80E001C086EFDF91CF911F9167
:104210000F910895EF92FF920F931F93CF93DF9327
:10422000CDB7DEB767970FB6F894DEBF0FBECDBF30
:104230007C01CB01AE014F5F5F4F67E170E01EDF95
:1042400081110BC007E110E020E030E0AE014F5FCC
:104250005F4F6DE070E0C70120D667960FB6F89407
:10426000DEBF0FBECDBFDF91CF911F910F91FF90A9
:10427000EF900895EF92FF920F931F93CF93DF93E8
:10428000CDB7DEB767970FB6F894DEBF0FBECDBFD0
:104290007B0107E110E020E030E0AE014F5F5F4FAF
:1042A0006DE070E063D6811107C0A701BE016F5FAA
:1042B0007F4F87E190E048DF67960FB6F894DEBF46
:1042C0000FBECDBFDF91CF911F910F91FF90EF9067
:1042D00008950F931F93CF93DF936032710508F415
:1042E0005DC0EA018C0162E070E0FC018081918197
:1042F00000DAF801828181708A8383818F708B83D9
:1043000084818F708C8385818F718D8386818F7777
:104310008E8387818F778F83808581708887818561
:104320008987828581708A87838583708B8784855E
:104330008F718C87858583708D87868583708E8746
:10434000878587708F8780898F71888B818981703D
:10435000898B82898A8B83898B8B84898C8B8589D5
:104360008D8B86898E8B87898F8BAE01485E5F4FE0
:1043700062E070E0808D918DBCD9F801828D8A8FCA
:10438000838D8B8F848D8F708C8F858D8D8F868D97
:104390008F708E8F878D8F8F80E001C086EFDF91C9
:1043A000CF911F910F9108950F931F93CF93DF9398
:1043B0006631710508F447C0EA018C01FC01808177
:1043C00088838181898382818A8383818F778B83AC
:1043D0004C5F5F4F8481958162E070E09F7089D966
:1043E000F80186818F778E8387818F838085888788
:1043F000818581708987828587708B87AE01445F54
:104400005F4F62E070E08385948573D9AE01425FAF
:104410005F4F62E070E0F801858596856AD9AE014C
:10442000405F5F4F62E070E0F8018785908961D955
:10443000F80181898A8B82898B8B83898C8B848913
:104440008D8B80E001C086EFDF91CF911F910F919E
:1044500008950F931F93CF93DF936731710508F48D
:1044600042C0EA018C01FC0180818F7088838181C8
:10447000898382818F708A8383818B8384818F700B
:104480008C8385818D8386818F738E8387818F70E6
:104490008F838085888781858F738987465F5F4F8B
:1044A00062E070E08285938524D9AE01445F5F4F5E
:1044B00062E070E0F801848595851BD9F801868556
:1044C0008E8787858F879E012E5E3F4F6089718919
:1044D0008289938944E050E047D9F801848981704A
:1044E0008E8B80E001C086EFDF91CF911F910F91FD
:1044F00008950F931F93CF93DF9362317105C8F135
:104500008A01EC0188818370FA018193AF0162E036
:1045100070E089819A81EDD8A8014D5F5F4F62E01C
:1045200070E08B819C81E5D88D818170F801858355
:104530008E81877086838F81878388858087898530
:104540008F7781878A858F7782878B858370838732
:104550008C85837084878D858F7085878E8586870F
:104560008F8587878889808B89898370818B80E09C
:1045700001C086EFDF91CF911F910F910895DC016B
:10458000FA0165307105B8F08C91817080831196C5
:104590008C9111978170818312968C911297817002
:1045A000828313968C9113978370838314968C91D6
:1045B000848380E0089586EF0895EF92FF920F9331
:1045C0001F93CF93DF9300D000D01F92CDB7DEB7FB
:1045D0007C01CB01AE014F5F5F4F65E070E0CFDF44
:1045E00081110BC005E010E020E030E0AE014F5F2C
:1045F0005F4F63E870E0C70150D40F900F900F90A9
:104600000F900F90DF91CF911F910F91FF90EF903E
:1046100008950F931F93CF93DF938C9708F4B1C045
:10462000EA018B01FB0180818F73888381818983FB
:1046300082818F708A8383818B836C5F7F4F82E05E
:1046400090E062D89D838C83B8016A5F7F4F82E0DF
:1046500090E05AD89F838E83B801685F7F4F82E0D5
:1046600090E052D899878887B801665F7F4F82E0D3
:1046700090E04AD89B878A87B801645F7F4F82E0C9
:1046800090E042D89D878C87B801625F7F4F82E0BF
:1046900090E03AD89F878E87B801605F7F4F82E0B5
:1046A00090E032D8998B888BB8016E5E7F4F82E0A4
:1046B00090E02AD89B8B8A8BB8016C5E7F4F82E09A
:1046C00090E022D89D8B8C8BB8016A5E7F4F82E090
:1046D00090E01AD89F8B8E8BB801685E7F4F82E086
:1046E00090E012D8998F888FB801665E7F4F82E084
:1046F00090E00AD89B8F8A8FB801645E7F4F82E07A
:1047000090E002D89D8F8C8FB801625E7F4F82E06F
:1047100090E00E94841B9F8F8E8FB801605E7F4F58
:1047200082E090E00E94841B99A388A3B8016E5D8B
:104730007F4F82E090E00E94841B9BA38AA3B80174
:104740006C5D7F4F82E090E00E94841B9DA38CA350
:10475000B8016A5D7F4F82E090E00E94841B9FA3B6
:104760008EA3B801685D7F4F82E090E00E94841BB9
:1047700099A788A7F80182A58AA783A58BA780E0BF
:1047800001C086EFDF91CF911F910F9108950F9394
:104790001F93CF93DF93819708F45CC0EA018B01EC
:1047A00084E090E00E94C11B688379838A839B83A5
:1047B000B8016C5F7F4F84E090E00E94C11B6C8366
:1047C0007D838E839F83B801685F7F4F84E090E094
:1047D0000E94D51B688779878A879B87B801645FA9
:1047E0007F4F84E090E00E94C11B6C877D878E879D
:1047F0009F87B801605F7F4F84E090E00E94C11BFB
:10480000688B798B8A8B9B8BB8016C5E7F4F84E0C1
:1048100090E00E94C11B6C8B7D8B8E8B9F8BB801AF
:10482000685E7F4F84E090E00E94D51B688F798F8F
:104830008A8F9B8FB801645E7F4F84E090E00E9476
:10484000C11B6C8F7D8F8E8F9F8FF80180A188A3F5
:1048500080E001C086EFDF91CF911F910F91089505
:104860000F931F93CF93DF93C89708F4B3C0EA0167
:104870008B0182E090E00E94841B99838883F80179
:1048800082818F778A8383818F738B838481837006
:104890008C83858181708D8386818F738E838781E0
:1048A0008F738F83B801685F7F4F82E090E00E9432
:1048B000841B937099878887F801828583708A8723
:1048C000838583708B8784858F708C8785858770BF
:1048D0008D87868581708E87878583708F87808995
:1048E000888B8189898BB8016E5E7F4F82E090E072
:1048F0000E94841B9F709B8B8A8BB8016A5E7F4FDE
:1049000082E090E00E94841B9D8B8C8BB801685ED6
:104910007F4F82E090E00E94841B9F8B8E8BF8017A
:10492000828D8170888F838D8770898F848D8A8F27
:10493000858D8B8F868D8F778C8F878D8F778D8FE1
:1049400080A183708E8F81A18F708F8F82A188A3A9
:1049500083A189A384A18AA385A181708BA386A149
:1049600083708CA387A18F718DA380A58F718EA377
:1049700081A58F718FA382A5817088A783A581707F
:1049800089A784A583708AA785A58F738BA7B80193
:10499000625D7F4F84E090E00E94C11BDC01CB018F
:1049A000A370BB278CA79DA7AEA7BFA7B8016E5C5D
:1049B0007F4F84E090E00E94C11B68AB79AB8AAB6B
:1049C0009BABF80186A981708CAB87A981708DABF8
:1049D00080E001C086EFDF91CF911F910F91089584
:1049E000DB01FA01C19708F4BBC015968C911597AD
:1049F0008F77808316968C91169787708183179690
:104A00008C9117978770828318968C9118978F7363
:104A1000838319968C9119978F7384831A968C913E
:104A20001A97817085831B968C911B978F7786834D
:104A30001C968C911C97817087831D968C911D9775
:104A40008F7380871E968C911E978F7381871F9618
:104A50008C911F97828750968C915097838751969F
:104A60008C915197848752968C9152978587539653
:104A70008C915397868754968C9154978787559637
:104A80008C915597808B56968C915697818B579623
:104A90008C915797828B58968C915897838B599607
:104AA0008C915997848B5A968C915A97858B5B96EB
:104AB0008C915B97868B5C968C915C97878B5D96CF
:104AC0008C915D97808F5E968C915E97818F5F96BB
:104AD0008C915F97828F90968C919097838F91960F
:104AE0008C919197848F92968C919297858F9396C3
:104AF0008C919397868F94968C919497878F9596A7
:104B00008C91959780A396968C91969781A3979672
:104B10008C91979782A398968C91989783A3999656
:104B20008C91999784A39A968C919A9785A39B963A
:104B30008C919B9786A39C968C919C9787A39D961E
:104B40008C919D9780A79E968C919E9781A79F960A
:104B50008C919F9782A7D0968C9183A780E008952F
:104B600086EF0895EF92FF920F931F93CF93DF93F9
:104B7000CDB7DEB7E1970FB6F894DEBF0FBECDBF5D
:104B80007B0101E310E020E030E0AE014F5F5F4FBA
:104B90006FE071E0EBD1811107C0A701BE016F5F2B
:104BA0007F4F81E390E01CDFE1960FB6F894DEBF03
:104BB0000FBECDBFDF91CF911F910F91FF90EF906E
:104BC00008954F925F926F927F92AF92BF92CF9271
:104BD000DF92EF920F93CF93DF93EC012A013B0119
:104BE00040EB54E060E070E056D281110DC0A12C82
:104BF000B12C6501A394EE24E39401E025EE30E0AE
:104C0000B301A201CE0157D2DF91CF910F91EF9066
:104C1000DF90CF90BF90AF907F906F905F904F905C
:104C20000895AF92BF92CF92DF92EF920F93DC0183
:104C3000AE5BBE4F0C910295017021E00227A12CC2
:104C4000B12C6501A394EE24E39421E330E033D248
:104C50000F91EF90DF90CF90BF90AF90089540E616
:104C60005AEE60E070E0DDCF0C94AD058F929F921C
:104C7000AF92BF92EF92FF920F931F93CF93DF9368
:104C8000EB017A01480159010E94AE05882319F011
:104C90008DEF9FEF1BC08D2F0E94D8058C2F0E9497
:104CA000D805E701CE018E199F09A0E0B0E0881574
:104CB0009905AA05BB0530F489910E94D80588237F
:104CC00089F3E6CF0E94150680E090E0DF91CF9156
:104CD0001F910F91FF90EF90BF90AF909F908F909A
:104CE00008958F929F92AF92BF92CF92DF92EF92F0
:104CF000FF920F931F93CF93DF93B82EA62E972E7C
:104D0000EA01680179010E94AE05882319F08DEF50
:104D10009FEF30C0892D0E94D8058A2D0E94D805AA
:104D20008B2D81600E94AE058111F1CF8E0146016D
:104D3000570181E0881A9108A108B108C8018C1BAD
:104D40009D0BA0E0B0E088159905AA05BB0530F4DD
:104D50000E94F105F80181938F01F0CFF1E0CF1AA5
:104D6000D108CC0DDD1D0E94030688830E94150624
:104D700080E090E0DF91CF911F910F91FF90EF9035
:104D8000DF90CF90BF90AF909F908F9008950F933A
:104D90001F93CF93DF931F92CDB7DEB7498301E016
:104DA00010E020E030E0AE014F5F5F4F5FDF009723
:104DB00011F083EF9FEF0F90DF91CF911F910F9133
:104DC00008950F931F93CF93DF9300D0CDB7DEB735
:104DD00059834A8302E010E020E030E0AE014F5FEB
:104DE0005F4F44DF009711F083EF9FEF0F900F901C
:104DF000DF91CF911F910F910895EF92FF920F9342
:104E00001F93CF93DF931F92CDB7DEB77A0119823C
:104E100001E010E020E030E0AE014F5F5F4F61DF66
:104E2000009721F42981F701208302C083EF9FEFCF
:104E30000F90DF91CF911F910F91FF90EF90089508
:104E4000EF92FF920F931F93CF93DF9300D0CDB7D4
:104E5000DEB77A011A82198202E010E020E030E029
:104E6000AE014F5F5F4F3DDF009749F429813A81E2
:104E7000322723273227F7013183208302C083EFB3
:104E80009FEF0F900F90DF91CF911F910F91FF90A7
:104E9000EF900895E9DE80E008952F923F924F92BF
:104EA0005F926F927F928F929F92BF92CF92DF928A
:104EB000EF92FF920F931F93CF93DF9368017901D5
:104EC000EA01B12C00E010E098011B01241A350A18
:104ED0008B5C9C4F4C010C151D052E053F0598F56C
:104EE0002801390188E3480E511C611C711C99E3AB
:104EF000C916D104E104F10470F0C414D504E60429
:104F0000F70460F4D701C601801B910BA20BB30B11
:104F10008C019D0107C09701860104C008E310E0E1
:104F200020E030E0B1100BC0AE01B1016C0F7D1F6D
:104F3000D4018C919BDE892B11F083EFB82E930165
:104F40008201E896C8CF8B2DDF91CF911F910F91F1
:104F5000FF90EF90DF90CF90BF909F908F907F90C9
:104F60006F905F904F903F902F9008952F923F92B7
:104F70004F925F926F927F928F929F92BF92CF9249
:104F8000DF92EF92FF920F931F93CF93DF9368010D
:104F90007901EA0100E010E09801B12C1B01241A0C
:104FA000350A8B5C9C4F4C010C151D052E053F05E9
:104FB00098F52801390188E3480E511C611C711CC9
:104FC00099E3C916D104E104F10470F0C414D504C6
:104FD000E604F70460F4D701C601801B910BA20B15
:104FE000B30B8C019D0107C09701860104C008E343
:104FF00010E020E030E0B1100BC0AE01B1016C0F49
:105000007D1FD4018C916DDE892B11F083EFB82EBA
:1050100093018201E896C8CF8B2DDF91CF911F912C
:105020000F91FF90EF90DF90CF90BF909F908F9067
:105030007F906F905F904F903F902F9008958B5C82
:105040009C4FFC018081A3DE892B11F083EF089532
:1050500080E008958B5C9C4FFC018081B2DE892B3F
:1050600011F083EF089580E008958B5C9C4FFC0164
:105070008081C3DE892B11F083EF089580E00895CD
:105080008B5C9C4FFC018081DBDE892B11F083EF70
:10509000089580E0089514161506160617064CF4B8
:1050A00082E08A95F1F700C0415051096109710908
:1050B000F2CF80E008952F923F924F925F926F92CD
:1050C0007F928F929F92AF92BF92CF92DF92EF9298
:1050D0000F93CF93DF931F92CDB7DEB74C011A0128
:1050E0002B01390119822114310441045104B1F01A
:1050F000AE014F5F5F4FB301C401B7DF99819E21BD
:1051000090130EC0811126C081E0F1E02F1A310802
:1051100041085108882339F380E01CC089EF1AC088
:10512000811118C0A114B104C104D10489F0D601C1
:10513000C501181619061A061B0654F4EFECF7E021
:105140003197F1F700C000000197A109B109F1CF33
:1051500080E0DBCF0F90DF91CF910F91EF90DF9048
:10516000CF90BF90AF909F908F907F906F905F9007
:105170004F903F902F900895EF92FF920F931F93BF
:10518000CF93DF938C017B01EA01BA010E942A0CC4
:10519000F7018083882359F018828FE089838A83FE
:1051A0001B82BE01C8010E942A0CF7018083BE0148
:1051B000C801DF91CF911F910F91FF90EF900C9458
:1051C000750CCF93DF93EB010E94A3098883DF91D5
:1051D000CF910895CF93DF93EB01642F0E94BF0E10
:1051E0008883DF91CF9108951F93CF93DF93EC01D4
:1051F000142F0E94F008CE010E94BF0C111105C0AF
:1052000080E28A830E94DE0804C00E94F00880E1E8
:105210008A83CE010E94BA0CCE01DF91CF911F91FB
:105220000C94C10CCF92DF92EF92FF920F931F93D9
:10523000CF93DF93EB014D3621F04C3621F041E066
:1052400003C042E001C043E0890120E030E0680192
:10525000790164E00E94660A888380E090E0DF9133
:10526000CF911F910F91FF90EF90DF90CF90089515
:105270007F928F929F92AF92BF92CF92DF92EF92E6
:10528000FF920F931F93CF93DF934C01EB01742E8A
:10529000B22E1882FC01EB5CFC4F82E58083C401D6
:1052A000F9DD8883811103C0BE01C4018ADF8881D2
:1052B000811104C0C4010E94620B8883888181111E
:1052C00004C0C4010E94A90A88838881811107C093
:1052D000AA2029F0B601C4010E94C30E88838881E8
:1052E000811106C0A11004C0C4010E94B80D8883BA
:1052F0008881811112C0B601C4010E94250F8883E4
:10530000F60181859285A385B485892B8A2B8B2B09
:1053100021F041E0BE01C4015DDF8881811104C03C
:10532000A701BE01C40128DF8881811105C0980151
:105330004B2DBE01C40176DF2B2D472DBE01C401CC
:1053400053DF81E09881911180E0DF91CF911F912F
:105350000F91FF90EF90DF90CF90BF90AF909F9014
:105360008F907F9008950E94C10C082E000C990B1D
:105370000895CF93DF93EC010E94F008CE01DF91F6
:10538000CF910C94BF0CBA010E94C50C80E090E054
:1053900008955058BB27AA270ED070C161D130F0B4
:1053A00066D120F031F49F3F11F41EF456C10EF483
:1053B000E095E7FB4CC1E92F72D180F3BA17620781
:1053C00073078407950718F071F49EF58AC10EF4EF
:1053D000E0950B2EBA2FA02D0B01B90190010C0105
:1053E000CA01A0011124FF27591B99F0593F50F41D
:1053F000503E68F11A16F040A22F232F342F442775
:10540000585FF3CF469537952795A795F04053956C
:10541000C9F77EF41F16BA0B620B730B840BBAF03C
:105420009150A1F0FF0FBB1F661F771F881FC2F7A7
:105430000EC0BA0F621F731F841F48F487957795BB
:105440006795B795F7959E3F08F0B3CF9395880F72
:1054500008F09927EE0F979587950895D4D008F412
:1054600081E008950CD00AC102D140F0F9D030F0AB
:1054700021F45F3F19F0EBC0511134C1EEC00FD1E0
:1054800098F39923C9F35523B1F3951B550BBB270B
:10549000AA2762177307840738F09F5F5F4F220FB8
:1054A000331F441FAA1FA9F333D00E2E3AF0E0E8B1
:1054B00030D091505040E695001CCAF729D0FE2FFD
:1054C00027D0660F771F881FBB1F2617370748078F
:1054D000AB07B0E809F0BB0B802DBF01FF27935845
:1054E0005F4F2AF09E3F510568F0B1C0FBC05F3F9F
:1054F000ECF3983EDCF3869577956795B795F7952D
:105500009F5FC9F7880F911D9695879597F9089524
:10551000E1E0660F771F881FBB1F621773078407C0
:10552000BA0720F0621B730B840BBA0BEE1F88F7CF
:10553000E0950895BCD088F09F5790F0B92F992737
:10554000B751A0F0D1F0660F771F881F991F1AF08E
:10555000BA95C9F712C0B13081F0C3D0B1E0089557
:10556000C0C0672F782F8827B85F39F0B93FCCF3D8
:10557000869577956795B395D9F73EF49095809584
:10558000709561957F4F8F4F9F4F0895E89409C0A4
:1055900097FB3EF490958095709561957F4F8F4F66
:1055A0009F4F9923A9F0F92F96E9BB279395F6957C
:1055B000879577956795B795F111F8CFFAF4BB0FFA
:1055C00011F460FF1BC06F5F7F4F8F4F9F4F16C05E
:1055D000882311F096E911C0772321F09EE8872FE8
:1055E000762F05C0662371F096E8862F70E060E0A4
:1055F0002AF09A95660F771F881FDAF7880F96951D
:10560000879597F90895990F0008550FAA0BE0E8C0
:10561000FEEF16161706E807F907C0F01216130674
:10562000E407F50798F0621B730B840B950B39F4B4
:105630000A2661F0232B242B252B21F408950A261A
:1056400009F4A140A6958FEF811D811D089597F95A
:105650009F6780E870E060E008959FEF80EC089518
:1056600000240A9416161706180609060895002441
:105670000A9412161306140605060895092E0394BB
:10568000000C11F4882352F0BB0F40F4BF2B11F42F
:1056900060FF04C06F5F7F4F8F4F9F4F089557FD8E
:1056A0009058440F551F59F05F3F71F04795880F90
:1056B00097FB991F61F09F3F79F087950895121627
:1056C00013061406551FF2CF4695F1DF08C01616D3
:1056D00017061806991FF1CF869571056105089484
:1056E0000895E894BB2766277727CB0197F908959B
:1056F0000BD0C4CFB5DF28F0BADF18F0952309F03E
:10570000A6CFABCF1124EECFCADFA0F3959FD1F384
:10571000950F50E0551F629FF001729FBB27F00D5F
:10572000B11D639FAA27F00DB11DAA1F649F6627B4
:10573000B00DA11D661F829F2227B00DA11D621F03
:10574000739FB00DA11D621F839FA00D611D221FBD
:10575000749F3327A00D611D231F849F600D211DA1
:10576000822F762F6A2F11249F5750408AF0E1F044
:1057700088234AF0EE0FFF1FBB1F661F771F881F8D
:1057800091505040A9F79E3F510570F060CFAACFCD
:105790005F3FECF3983EDCF3869577956795B79578
:1057A000F795E7959F5FC1F7FE2B880F911D9695A2
:1057B000879597F908959F9336D00F9007FCEE5F79
:1057C00059C0DF93D92F2FD0E695D7952AED3FE02A
:1057D00049E45FE3B33A6207730784079507D795F7
:1057E0002AF0A2EA49EC9068E6DD48DFE4EBF0E05D
:1057F00008D0DD0F0BF04FD0DD0F0BF49058DF9188
:1058000008959F938F937F936F93FF93EF939B01E3
:10581000AC016EDFEF91FF9153D02F913F914F91EB
:105820005F9166CF1ACF43DFE8F3E894E0E0BB274F
:105830009F57F0F02AED3FE049EC06C0EE0FBB0F9A
:10584000661F771F881F28F0B23A62077307840724
:1058500028F0B25A620B730B840BE3959A9572F79A
:10586000803830F49A95BB0F661F771F881FD2F7D8
:1058700090481AC0EF93E0FF06C0A2EA2AED3FE08D
:1058800049EC5FEB98DDFADE0F90039401FC905831
:10589000E7EDF0E0B6CF9B01AC0160E070E080E89E
:1058A0009FE3E0CD9F3F31F0915020F487957795AD
:1058B0006795B795880F911D9695879597F90895E7
:1058C000DF93CF931F930F93FF92EF92DF927B01B1
:1058D0008C01689405C0DA2EEF0116DFFE01E89412
:1058E000A5912591359145915591AEF3EF0163DD79
:1058F000FE019701A801DA9479F7DF90EF90FF900D
:105900000F911F91CF91DF910895DB018F939F93AA
:105910005DD0BF91AF91A29F800D911DA39F900D6F
:10592000B29F900D11240895AA1BBB1B51E107C023
:10593000AA1FBB1FA617B70710F0A61BB70B881F1F
:10594000991F5A95A9F780959095BC01CD010895AE
:10595000A1E21A2EAA1BBB1BFD010DC0AA1FBB1F73
:10596000EE1FFF1FA217B307E407F50720F0A21BE5
:10597000B30BE40BF50B661F771F881F991F1A9452
:1059800069F760957095809590959B01AC01BD017C
:10599000CF010895052E97FB16F400940FD057FD04
:1059A00005D0D6DF07FC02D046F408C050954095DC
:1059B000309521953F4F4F4F5F4F089590958095BB
:1059C000709561957F4F8F4F9F4F08954ED0A59F43
:1059D000900DB49F900DA49F800D911D11240895EA
:1059E000E894DF93CF93FC01DB013FD07F936F936B
:1059F000E9019A01AC01BF93AF933F932F93DF016D
:105A000034D026F46C1B7D0B820B930B9E01EB01B3
:105A1000FC013AD0AF91BF912F913F9135D0BE019B
:105A2000CF01F9012F913F91CF91DF91089597FB1D
:105A300010F8169400080F93083098F00850232FA0
:105A4000342F452F562F672F782F892F902DF4CF85
:105A500005949795879577956795579547953795C9
:105A600027950A95AAF70F910895A29FB001B39FB9
:105A7000C001A39F700D811D1124911DB29F700D57
:105A8000811D1124911D0895F0DF460F571FC81F77
:105A9000D91F08F4319608950F931F93CF93DF9386
:105AA0008230910510F482E090E0E091D905F09108
:105AB000DA0520E030E0A0E0B0E0309719F1408155
:105AC00051810281138148175907C8F0841795073F
:105AD00069F4109731F012960C93129713961C9359
